:020000040800F2
:10000000100A0024E10200080947000829450008F9
:10001000014700083B0A00081557000800000000CF
:10002000000000000000000000000000BF4C0008BD
:10003000A90F000800000000E9470008C14C0008B3
:10004000FB020008FB020008FB020008FB0200089C
:10005000FB020008FB020008FB020008FB0200088C
:10006000FB020008FB020008FB020008FB0200087C
:10007000FB020008FB020008FB020008FB0200086C
:10008000FB020008FB020008FB020008AD0F00089D
:10009000FB020008FB020008FB020008FB0200084C
:1000A000FB020008FB020008FB020008FB0200083C
:1000B000094E0008FB020008FB020008FB020008D2
:1000C000FB020008FB020008FB020008FB0200081C
:1000D000FB020008FB020008FB020008FB0200080C
:1000E000FB020008FB02000800000000FB02000801
:1000F000FB020008FB020008FB020008FB020008EC
:10010000FB020008FB020008FB020008FB020008DB
:10011000FB020008FB020008FB020008FB020008CB
:10012000FB020008FB020008FB020008FB020008BB
:10013000FB020008FB020008FB020008FB020008AB
:1001400000000000000000000000000000000000AF
:10015000FB020008FB020008FB020008FB0200088B
:10016000FB020008FB020008FB020008FB0200087B
:10017000FB020008FB020008FB0200080000000070
:10018000FB020008FB020008FB020008FB0200085B
:10019000FB020008FB020008FB020008FB0200084B
:1001A000FB020008FB020008FB0200080000000040
:1001B000FB020008FB020008FB020008FB0200082B
:1001C000FB020008FB020008000000000000000025
:1001D0000000000000000000FB020008000000001A
:1001E000000000000000000000000000000000000F
:1001F0000000000000000000FB020008FB020008F5
:10020000FB020008FB02000800000000FB020008DF
:10021000FB020008FB020008FB020008FB020008CA
:10022000FB02000800000000FB02000800000000C4
:10023000FB020008FB02000800000000FB020008AF
:10024000FB020008FB020008FB020008FB0200089A
:10025000FB020008FB020008FB020008FB0200088A
:10026000FB020008FB020008FB020008FB0200087A
:10027000FB020008FB020008FB020008000000006F
:10028000FB020008FB020008FB020008FB0200085A
:1002900000000000FB020008FB0200080000000054
:1002A00000000000FB020008FB020008FB0200083F
:1002B000B9560008FB020008FB020008FB02000818
:1002C000FB020008FB020008FB020008DFF80CD06C
:1002D00000F0A2F800480047F95E0008100A002468
:1002E0000648804706480047FEE7FEE7FEE7FEE7D0
:1002F000FEE7FEE7FEE7FEE7FEE7FEE7494D000802
:10030000CD0200082DE9F05F0546002092469B468D
:1003100088460646814640241BE02846414647461B
:10032000224600F069F853465A46C01A914110D34C
:1003300011461846224600F050F82D1A67EB0108C6
:100340004F4622460120002100F047F817EB000934
:100350004E41201EA4F10104DFDC484631462A4606
:100360004346BDE8F09F40EA01039B0703D009E044
:1003700008C9121F08C0042AFAD203E011F8013B91
:1003800000F8013B521EF9D27047D2B201E000F8EA
:10039000012B491EFBD270470022F6E710B5134629
:1003A0000A4604461946FFF7F0FF204610BD30B557
:1003B0000B46014600202022012409E021FA02F523
:1003C0009D4205D303FA02F5491B04FA02F52844BD
:1003D000151EA2F10102F1DC30BD202A04DB203A17
:1003E00000FA02F1002070479140C2F1200320FA88
:1003F00003F3194390407047202A04DB203A21FA86
:1004000002F00021704721FA02F3D040C2F120022D
:100410009140084319467047064C074D06E0E068D6
:1004200040F0010394E8070098471034AC42F6D33B
:10043000FFF750FFD85F0008F85F0008B7EE001A1A
:1004400080ED001A9FED0C1A80ED011A80ED021A62
:1004500080ED031A80ED041A80ED051A80ED061A6E
:1004600080ED090AC0ED070A80ED0A1A80ED0B1A2B
:1004700080ED0C1A704700000000000030B50D46FA
:1004800004462DED068B83B0B6EE00AA02AA68469C
:1004900091ED000A8DED000A91ED010A8DED010A42
:1004A00091ED020A01A98DED020A04F02EF994EDF6
:1004B000018A94ED039AD4ED009AD4ED028A28EED5
:1004C000090AB0EE001ADDED012A9DED003A09EEB1
:1004D000E80A644860EE010A29EE880A08EE890AF3
:1004E00060EE011A29EEA90A9DED021A08EE480AEB
:1004F00008EEE80A09EE090A22EE802A01EE612AD6
:1005000021EE201A63EE211A03EE401A42EEE01AA1
:1005100094ED0A0AD4ED070A02EE200A84ED0A0AD5
:10052000D4ED0B2A10EE101A41EE202AC4ED0B2A4E
:1005300094ED0C3A01EEA03A84ED0C3A9FED4A0A94
:10054000814201DD84ED0A0A484ADFED493AA16A99
:10055000914201D9C4ED0A3A12EE901A814201DDAE
:1005600084ED0B0AE16A914201D9C4ED0B3A13EE16
:10057000101A814201DD84ED0C0A206B904201D9F2
:10058000C4ED0C3A95ED030A00EE820A94ED0A2AB6
:1005900030EE020A95ED042A00EE812A94ED0B1A42
:1005A00032EE011A95ED052A00EEA12A68EE401AF6
:1005B000D4ED0C0A48EEC11A72EE200A49EE601A18
:1005C00061EE8A2A69EE801A48EEA01A49EE411AB5
:1005D00021EE8A2A69EE811A48EE601A69EEA00AB5
:1005E00048EE010A49EE001A48EEC00A94ED090AE5
:1005F00061EE8A1A42EE809A02EE008A60EE8A0A62
:1006000041EE808A00EE809A29EEA90A08EE080AD7
:1006100008EEA80A09EE090A05F07AFAB5EEC00A52
:10062000F1EE10FA04DDF7EE000AC0EE801A01E0E8
:10063000F7EE001A04F1180229EEA10A68EE210A69
:1006400028EEA11A69EE211A111F081F84EC040A72
:1006500095ED062A84ED082A04F0C8F803B0BDEC35
:10066000068B30BDCDCCCC3DCDCCCC3DCDCCCCBDA6
:10067000CDCCCCBD01220248114602F041B80000A9
:100680000008025800220248012102F039B8000097
:100690000008025830B587B014216846FFF77CFE89
:1006A0002348016841F080010160016801F0800188
:1006B0000591016841F004010160016801F0040145
:1006C0000591016841F010010160016801F010011D
:1006D0000591016841F002010160016801F0020129
:1006E0000591016841F00101016000680122114D8E
:1006F000092100F001000590284602F001F80321CD
:1007000009200090002401200190CDE902416946B2
:10071000284601F00FFF4FF4A05000904FF48810CE
:100720006946CDE90104044801F004FF07B030BD7B
:10073000E044025800080258001002580122024802
:10074000082101F0DDBF0000000802580022024825
:10075000082101F0D5BF00000008025810B5154867
:10076000B7EE001A2DED028B9FED108ADFED108A97
:10077000F0EE480AB0EE680A03F038FF0D48B7EE15
:10078000001A2430F0EE480AB0EE680A03F02EFF9B
:10079000F0EE480AB0EE680ABDEC028BB7EE001A24
:1007A0000448BDE81040483003F020BF6F12833A80
:1007B000EC51B83D3003002400B587B0684600F026
:1007C00045F90B481C226946FFF7CDFD08484FF458
:1007D0007A719FED081AF6EE000AB0EE080A816100
:1007E0001E21416107B05DF804EB03F08ABF0000F1
:1007F000A80200240AD7233C04F0BAB930B54FF45C
:100800007A75044602E0284600F004F8641EA4B29B
:10081000F9D230BD70B54FF0E02400216369C0EB20
:100820000010A2694501A0699042FCD002D2A2EB5F
:10083000000202E0A3EB0006324411440246A94242
:10084000F1D370BD10B5FFF725FFFFF7D5FFFFF718
:10085000B3FFFFF783FF0948DFED060A9FED060AA5
:10086000FFF7ECFD05F048FA044605F0CBFA20430B
:1008700010BD0000CDCCCC3D0AD7A33B9C03002487
:100880007CB50446002000900190FFF7FBFE92200B
:1008900000F0BAF806226946122000F097F8FFF738
:1008A000E9FE9DF801009DF80010474D000200B2DE
:1008B000084300EE100AD5ED000AB8EEC00A20EE9B
:1008C000200A84ED000A9DF803009DF80210000242
:1008D00000B2084300EE100AF8EEC00A95ED000AD7
:1008E00060EE800AC4ED010A9DF805009DF8041031
:1008F000000200B2084300EE900AF8EEE00A20EE93
:10090000800A84ED020AFFF721FF082269460020D1
:1009100000F05CF8FFF712FF9DF800000F282ED1C1
:100920009DF803009DF80210000200B2084300EE9B
:10093000100AF8EEC00A95ED010A60EE800AC4EDD7
:10094000030A9DF805009DF80410000200B2084358
:1009500000EE900AF8EEE00A60EE800AC4ED040AA8
:100960009DF807009DF80610000200B2084300EE53
:10097000900AF8EEE00A20EE800A84ED050AFFF7FF
:1009800081FEA22000F040F802226946222000F0F9
:100990001DF8FFF76FFE9DF800009DF80110C000E4
:1009A00040EA5110B0F5806F01DBA0F5006000EE69
:1009B000100AB4EE001AF8EEC00AB3EE070A00EE11
:1009C000810A84ED060A7CBD1C00002470B540F04D
:1009D000800014460D4600F017F806E0552000F0A0
:1009E00013F8641E05F8010BE4B2002CF6D170BDBB
:1009F00010B540F080000C4600F006F8552000F0DD
:100A000003F8207010BD000001B582B04FF47A7079
:100A10000123009001AA034802A903F06FFA9DF890
:100A200004000EBD9C01002410B50C46FFF7ECFF3E
:100A30002046BDE81040FFF7E7BFFEE710B500F025
:100A40001FF8BDE8104004F091B8000000B59FED1C
:100A50000B0A87B000218DED000A8DED010A8DEDA6
:100A6000020A8DED040A8DED030A1C220591069100
:100A70006946FFF778FC07B000BD000000000000E9
:100A800010B52DED048B88B000F076FB6846FFF7BB
:100A9000DDFF2F481C226946FFF765FC2C4840F615
:100AA000B83484616846FFF7D1FF29481C226946A3
:100AB0001C30FFF758FC26481C3084616846FFF75D
:100AC000C5FF23481C2269463830FFF74CFC2048FC
:100AD000383084616846FFF7B9FF1D481C2269461B
:100AE0005430FFF740FC1A489FED1A8A5430DFED6E
:100AF0001A8A9FED1A9AB0EE481AF0EE680AB0EE24
:100B0000490A8461543803F0FCFD1148B0EE481ADC
:100B10001C30F0EE680AB0EE490A03F0F2FD0C4812
:100B2000B0EE481A3830F0EE680AB0EE490A03F029
:100B3000E8FD08B00648B0EE481AF0EE680AB0EEDC
:100B4000490ABDEC048B5430BDE8104003F0D9BD18
:100B500024020024A69BC43AD578693DCDCCEC3F55
:100B600010B52A4A016891423AD0284A1832914277
:100B700036D0264A3032914232D0244A483291420D
:100B80002ED0224A603291422AD0204A78329142B5
:100B900026D01E4A9032914222D01C4AA83291425D
:100BA0001ED01B4A91421BD0194A1832914217D0CD
:100BB000174A3032914213D0154A483291420FD031
:100BC000134A603291420BD0114A7832914207D0D9
:100BD0000F4A9032914203D00D4AA832914211D16E
:100BE000CAB20C4C1823103AB2FBF3F26FF30901AE
:100BF00002F00703032AE35CC36500D9091D816580
:100C0000084610BD21F0FF01F9E700001000024086
:100C1000100402405C5F000810B501680123224CFB
:100C2000CAB2A1421BD0204C1434A14217D01E4C92
:100C30002834A14213D01C4C3C34A1420FD01A4C92
:100C40005034A1420BD0184C6434A14207D0164C4A
:100C50007834A14203D0144C8C34A1420FD114211A
:100C6000083AB2FBF1F1114A02EB810202660F4A27
:100C700001F01F0180328B40C0E9192310BD1824F8
:100C8000103AB2FBF4F20A4C2144A82900D80832E9
:100C9000084901EB8201016606498031416602F094
:100CA0001F018B40836610BD08540258005802583B
:100CB000F0FBFDBF0008024010B50279531E072B60
:100CC00030D8194C0168A1421BD0174C1434A142F2
:100CD00017D0154C2834A14213D0134C3C34A142F8
:100CE0000FD0114C5034A1420BD00F4C6434A142B0
:100CF00007D00D4C7834A14203D00B4C8C34A14268
:100D000006D10A4901EB8201C1660849443105E078
:100D1000074901EB8201C1660549443101670121A0
:100D20009940416710BD000008540258FC58025811
:100D3000FC080240014610B500208B694FF0C074DA
:100D40008A6A53B1B3F5005F15D072B1012A0CD095
:100D5000022A0AD0032A09D104E01AB1012A06D0D6
:100D6000022A03D1C96AC90100D5012010BDC96A90
:100D7000A142FAD010BD002AF7D0012AF2D0022AEF
:100D8000F3D0032AF3D010BD2DE9F04F834E834FEB
:100D9000DFF808C24836DFF80492DFF800A20CF151
:100DA000180CDFF8F8B109F13009DFF8F0E10AF1C9
:100DB000600A04680BF1780B856D0EF1900EBC4251
:100DC0006DD064456BD04C4569D0B44267D0544572
:100DD00065D05C4563D0744561D0DFF8C08108F10F
:100DE000A80844455BD0DFF8B881444557D0DFF808
:100DF000B08108F11808444551D0DFF8A48108F10A
:100E0000300844454BD0DFF8988108F14808444544
:100E100045D0DFF88C8108F1600844453FD0DFF809
:100E2000808108F17808444539D0DFF8748108F1F1
:100E30009008444533D0DFF8688108F1A80844459C
:100E40002DD0DFF86081444529D0DFF8588108F1C2
:100E50001408444523D0DFF84C8108F128084445A4
:100E60001DD0DFF8408108F13C08444517D0DFF879
:100E7000348108F15008444511D0DFF8288108F189
:100E8000640844450BD0DFF81C8108F1780844451C
:100E900005D0DFF8108108F18C08444509D1D0E96C
:100EA0001948C4F80480C46E1CB1D0E91C48C4F8C9
:100EB00004800468BC422ED064452CD04C452AD016
:100EC000B44228D0544526D05C4524D0744522D065
:100ED000324EA836B4421ED0314EB4421BD0304EF2
:100EE0001836B44217D02E4E3036B44213D02C4EA2
:100EF0004836B4420FD02A4E6036B4420BD0284E4A
:100F00007836B44207D0264E9036B44203D0244EF1
:100F1000A836B44215D190F85C4004F01F063F2477
:100F2000B440AC600468256825F4802525602EE077
:100F30009A600068C160BDE8F08F99600068C26087
:100F4000F9E7184EB4421BD0164E1436B44217D0EF
:100F5000144E2836B44213D0124E3C36B4420FD051
:100F6000104E5036B4420BD00E4E6436B44207D009
:100F70000C4E7836B44203D00A4E8C36B442DAD1E5
:100F800090F85C4004F01F060124B4406C600468D3
:100F900063608368402B0368CFD1C9E7100002402B
:100FA000100402400854025870470000014800F045
:100FB00075BF00006400002430B50368426B53F82D
:100FC000844F4FF6FC718C4344EA82041C60036832
:100FD00053F8844F058F24F47F0444EA05441C60D1
:100FE000836B1A440368D3F888408C4344EA820434
:100FF000C3F88840036853F8884F858F24F4FE04B3
:1010000044EA05441C60C36B02EB43020368D3F857
:10101000A0408C4344EA8204C3F8A040036853F81C
:10102000A04FB0F8405024F4FE0444EA05441C608C
:10103000D0E9103403FB04220368D3F8B0408C439A
:1010400044EA8204C3F8B040036853F8B04FB0F8E4
:10105000485024F4FE0444EA05441C60D0E91234EC
:1010600003FB04220368D3F8AC408C4344EA8204B7
:10107000C3F8AC40D0E9143403FB04220368D3F86E
:10108000F0408C4344EA8204C3F8F040036853F80C
:10109000F04FB0F8585024F47C1444EA05441C6026
:1010A000836D02EB43030268D2F8C0408C4344EAEC
:1010B0008301C2F8C010016851F8C02FB0F85C304D
:1010C00022F47C1242EA03420A60016851F8C02F00
:1010D00090F8603022F07C5242EA03620A60416B71
:1010E000234A02EB8101C166826B01EB8202026737
:1010F000C36B02EBC3024267D0E91034634302EBD7
:1011000083028267D0E91234634302EB8302C26731
:10111000D0E91434634302EB8302C0F88020836D6E
:1011200002EBC302C0F88420C46D836E5C4302EB03
:101130008402C0F88820046E5C430E4B02EB8402EC
:10114000C0F890209A420AD9D0F89C1041F02001B2
:10115000C0F89C10032180F89810012030BD0022B7
:1011600000E004C1D0F890308B42FAD8002030BDA6
:1011700000AC0040FCD300402148242230B50024BC
:101180001E4989B0C4608460012501600421057492
:101190004474C0E90E544463847444650465C465B2
:1011A0004161C0E906520D22026205220264C0E9D3
:1011B0001114C464846581660A21C0E9181400F022
:1011C000DDFF02206946CDE901400002CDE9035070
:1011D0004FF4E06005900A4800F062FD08480022E4
:1011E000012100F030FD06480022012100F0E8FC5A
:1011F000034801F07CF909B030BD000000A00040B8
:10120000640000242DE9F84F044601F07FFA0090B5
:1012100034B194F83500022805D080206065EBE0F9
:101220000120BDE8F88FCC4ECB4FCB491836DFF804
:1012300028833037DFF82093DFF81CA308F1480833
:10124000DFF814B309F1600920680AF1780A0BF19C
:10125000900B88422ED0B0422CD0B8422AD04045C4
:1012600028D0484526D0504524D0584522D0BA4AE7
:10127000A83290421ED0B94A90421BD0B74A1832C9
:10128000904217D0B54A3032904213D0B34A483218
:1012900090420FD0B14A603290420BD0AF4A7832C0
:1012A000904207D0AD4A9032904203D0AB4AA83268
:1012B000904209D1026822F01E0202602068426951
:1012C00022F08002426103E0026822F00E02026016
:1012D00025688D4228464DD0B0424BD0B84249D007
:1012E000404547D0484545D0504543D0584541D06A
:1012F000994AA83290423DD0984A90423AD0974AB3
:101300001832904236D0954A3032904232D0934AC9
:10131000483290422ED0914A603290422AD08F4A71
:101320007832904226D08D4A9032904222D08B4A19
:10133000A83290421ED08A4A90421BD0884A14326A
:10134000904217D0864A2832904213D0844A3C32C9
:1013500090420FD0824A503290420BD0804A643281
:10136000904207D07E4A7832904203D07C4A8C3239
:10137000954204D1206E026822F4807202607649A0
:101380002068884228D0B04226D0B84224D04045B8
:1013900022D0484520D050451ED058451CD06E491B
:1013A000A831884218D06D49884215D06B49183150
:1013B000884211D06949303188420DD0674948319F
:1013C000884209D065496031884205D06349783147
:1013D000884201D061499031016821F0010101602A
:1013E0000EE001F093F90099401A052808D9202051
:1013F0006065032084F83500002084F834000FE78E
:101400002868C007EDD1544A0121206890422ED0AF
:10141000B0422CD0B8422AD0404528D0484526D0EA
:10142000504524D0584522D04B4BA83398421ED06B
:101430004A4B98421BD0494B1833984217D0474B20
:101440003033984213D0454B483398420FD0434B2A
:10145000603398420BD0414B7833984207D03F4BD2
:101460009033984203D03D4BA833984208D194F86A
:101470005C30A06D03F01F053F23AB40836007E0A5
:1014800094F85C30A06D03F01F0301FA03F343608E
:10149000206890424DD0B0424BD0B84249D0404530
:1014A00047D0484545D0504543D0584541D02A4AB9
:1014B000A83290423DD0294A90423AD0274A183269
:1014C000904236D0254A3032904232D0234A4832B8
:1014D00090422ED0214A603290422AD01F4A783260
:1014E000904226D01D4A9032904222D01B4AA83208
:1014F00090421ED01A4A90421BD0194A1432904290
:1015000017D0174A2832904213D0154A3C329042E5
:101510000FD0134A503290420BD0114A643290429D
:1015200007D00F4A7832904203D00D4A8C32904255
:101530000BD1D4E919024260E06E30B1026822F4A6
:1015400080720260D4E91C02426084F835100020E9
:1015500084F8340065E600001000024010040240E8
:1015600008540258406D70472DE9F05F044601F0C1
:10157000CDF80646F4B3E04F0222DFF87C83002565
:10158000DFF87493DFF870A308F13008DFF868B370
:1015900009F1480920680AF1600A0BF1780BB8429A
:1015A00034D0D5491831884230D040452ED04845F6
:1015B0002CD050452AD0584528D0CF499031884268
:1015C00024D0CD49A831884220D0CC4988421DD0B2
:1015D000CA491831884219D0C8493031884215D0DB
:1015E000C6494831884211D0C449603188420DD083
:1015F000C24900E042E07831884207D0BF499031CB
:10160000884203D0BD49A83188427DD184F8352075
:10161000B84284F834502CD0B7491831884228D0C9
:10162000404526D0484524D0504522D0584520D0AA
:10163000B149903188421CD0AF49A831884218D0B6
:10164000AE49884215D0AD491831884211D0AB4916
:10165000303188420DD0A9494831884209D0A74984
:101660006031884205D0A5497831884201D0A3492C
:101670009031016821F00101016009E00120BDE81D
:10168000F09F01F043F8801B052801D9202011E1CB
:1016900020680068C007F4D12268116898480140AA
:1016A000D4E902031843D4E9043633431843A36949
:1016B0001843E3691843236A18430843616A0429FD
:1016C00003D1D4E90B13194308436168A1F129033D
:1016D000052B0BD9163B032B08D9083B012B05D949
:1016E000083B032B02D97439032901D840F4801038
:1016F00010602068406920F00701606A042840EA11
:1017000001060DD1A06A00E017E00643E06A38B197
:101710002046FFF70FFB18B1402060650120CBE0A9
:10172000206846612046FFF71BFA94F85C1001F030
:101730001F023F219140816056E0724988421BD0D0
:10174000704B1433984217D06E4B2833984213D005
:101750006C4B3C3398420FD06A4B503398420BD0BD
:10176000684B6433984207D0664B7833984203D075
:10177000644B8C3398427DD1884201D06149143149
:1017800084F8352084F8345002685F490A40A16823
:10179000402970D080296FD00021E36841EAD3014D
:1017A000236941EAD301636941EAD301A36941EAAC
:1017B000D301E36941EAD301236A41EA13111143DA
:1017C000016050492068494208441421B0FBF1F0FF
:1017D0008000E0652046FFF7C3F994F85C1001F043
:1017E0001F020121914041602068B84255D0424912
:1017F0001831884251D040454FD048454DD05045D2
:101800004BD0584549D03C499031884245D03A495F
:10181000A831884241D0394988423ED037491831F1
:1018200088423AD035493031884236D03349483140
:10183000884232D03149603188422ED02F497831E8
:1018400088422AD02D499031884226D02B49A83190
:10185000884222D02B4988421FD02A49143188421D
:101860001BD028492831884217D026493C3188426C
:1018700013D002E01DE017E018E022495031884201
:101880000BD020496431884207D01E497831884204
:1018900003D01C498C31884228D12046FFF7BCF97F
:1018A000A06880280BD00BE0102176E74FF4804130
:1018B00073E740206065032084F83500DEE665604C
:1018C000216E20790860D4E9190141606068401EEA
:1018D000072808D82046FFF7EFF9E06E0560D4E945
:1018E0001C01416002E0E5662567656765650120CA
:1018F00084F835000020C2E61000024010040240C7
:101900003F8010FE085402580F00FEFF2DE9F84FEB
:1019100004004FF00000009014D094F83400012827
:1019200012D0012084F8340094F835500020012DA5
:101930000CD04FF40061616584F834000120009000
:10194000BDE8F88F0120FBE70220F9E7022584F8C3
:1019500035506065974D974E964F1835DFF854C255
:101960003036DFF850824837DFF84892DFF844A27B
:1019700008F16008DFF83CB209F1780920680AF143
:10198000900A0BF1A80B604533D0A84231D0B04289
:101990002FD0B8422DD040452BD0484529D05045B6
:1019A00027D0584525D0DFF810C2604521D0DFF898
:1019B00008C20CF1180C60451BD0DFF8FCC10CF11B
:1019C000300C604515D0DFF8F0C10CF1480C6045D3
:1019D0000FD0DFF8E4C10CF1600C604509D0DFF8EE
:1019E000D8C10CF1780C604503D0DFF8CCC10CF104
:1019F000900CD0F800C02CF0010CC0F800C02046BC
:101A0000FFF7C2F96B49206888422CD0A8422AD03F
:101A1000B04228D0B84226D0404524D0484522D0F4
:101A2000504520D058451ED0634A90421BD0624A90
:101A30001832904217D0604A3032904213D05E4A3A
:101A4000483290420FD05C4A603290420BD05A4AE2
:101A50007832904207D0584A9032904203D0564A8A
:101A6000A83290420CD1026822F01E0242F0160207
:101A70000260206C88B12068026842F008020BE026
:101A8000026822F00E0242F00A020260206C20B1CD
:101A90002068026842F004020260206888424BD04D
:101AA000A84249D0B04247D0B84245D0404543D083
:101AB000484541D050453FD058453DD03E4A9042E0
:101AC0003AD03D4A1832904236D03B4A30329042AA
:101AD00032D0394A483290422ED0374A6032904252
:101AE0002AD0354A7832904226D0334A90329042FA
:101AF00022D0314AA83290421ED0304A90421BD0A8
:101B00002E4A1432904217D02C4A2832904213D0D9
:101B10002A4A3C3290420FD0284A503290420BD091
:101B2000264A6432904207D0244A7832904203D049
:101B3000224A8C3290420DD1206E0268D20303D526
:101B4000026842F480720260E06E18B1026842F4EA
:101B5000807202602068884226D0A84224D0B04219
:101B600022D0B84220D040451ED048451CD0504518
:101B70001AD0584518D01049884215D00E4918314E
:101B8000884211D00C49303188420DD00A49483181
:101B9000884209D008496031884205D00649783129
:101BA000884201D004499031016841F0010101608F
:101BB0000098C5E610000240100402400854025884
:101BC00010B590F89830012B09D0022B07D0D0F82F
:101BD0009C1041F00201C0F89C10012010BD036868
:101BE0009C6D0C4203D1DC6D44F0010404E09C6D5B
:101BF00031EA04041ED00324DC658B0505D5036897
:101C0000D3F8E0401443C3F8E0404B0505D5036822
:101C1000D3F8E4401443C3F8E4400068426D074B36
:101C20000B401A4342650648026842EA917101601E
:101C3000002010BDDC6D44F00204DDE7FFFFCF3F64
:101C400014A80040704790F89830012B07D0D0F8C6
:101C50009C1041F00401C0F89C100120704761B154
:101C60000068012913D0D0F8B01021F0FE4141EAFC
:101C70000261C0F8B010002070470068D0F8F01082
:101C800021F07C5141EA0261C0F8F010F3E7D0F88E
:101C9000A01021F0FE4141EA0261C0F8A010EAE77D
:101CA00010B590F89820012A09D0022A07D0D0F860
:101CB0009C1041F00201C0F89C10012010BD0B687F
:101CC000CA6883B10B69072A43EA427325D00C7AAC
:101CD0004A6942EA84724968006F00EBC100C0E9BA
:101CE0000032002010BD072A0DD00C7AD2064B69B5
:101CF00043EA84730C8A42EA0442C06E4968134383
:101D000040F82130EDE70B8A4FF060548A6942EACF
:101D10000343CA6944EA0222EFE78A69DBE77047B6
:101D200070470000F0B590F898500024022D04D0C0
:101D3000D0F89C1041F008012EE040294FF00046F9
:101D400005D041292CD0056D8D421CD945E0056890
:101D5000D5F8A07017F4FE0F15D0D5F8A4707F0643
:101D600016D0D5F8A470FF0105D5D5F8A070B6EB54
:101D7000D77F00D10124D5F8A450466FC5F30525BF
:101D80002C44456C27E0D0F89C1041F0200103E082
:101D9000D0F89C1041F48071C0F89C100120F0BD77
:101DA0000568D5F8B07017F4FE0FECD0D5F8B47014
:101DB0007F06EDD0D5F8B470FF0105D5D5F8B07029
:101DC000B6EBD77F00D10124D5F8B450866FC5F3A8
:101DD00005252C44C56C654302E0456DC66F4D4337
:101DE00006EB8506356815F080455560356824D0CA
:101DF00025F0604515603568264F05F00055956063
:101E0000356805F000451561B588ADB2D5617568D6
:101E100005F47025D560756805F480155561756801
:101E200005F4001595617568C5F30665156275685A
:101E3000ED0F55620025083607E0C5F38A45D9E75E
:101E400016F805C003F805C06D1CD2F80CC007EBEE
:101E50001C4C9CF800C0AC45F2D8402909D041295F
:101E60000BD0012220290CD200688A40C0F89820AB
:101E70000DE00068C0F8A84009E00068C0F8B8406C
:101E800005E0006801F01F018A40C0F89C20002096
:101E9000F0BD00007C5F0008704700002DE9FE4F98
:101EA000B34F044638688007391D096800EA817B12
:101EB0002068016D426D01F470410A400292016D8B
:101EC000426D01F00F0102EA010A016D426D01F05D
:101ED000F0010A400192016D426D01F0715102EA78
:101EE0000108016D426D01F060710A400092416D80
:101EF000056D4FF00009CE43F10509D4E943C9054A
:101F000006D4B9150165C7F800902046FFF7C4FF55
:101F1000700510D4E84340050DD42068D0F8DC20CB
:101F2000D0F8E41011404FF480620265C7F80090C9
:101F3000204600F0FBFABBF1000F0BD08D490BEAF5
:101F40000100216808654FEA9B70386059462046B9
:101F5000FFF778FE029850B186490840216808656D
:101F60000298800F38600299204600F0E1FABAF139
:101F7000000F0BD07F490AEA0100216808654FEA8B
:101F80009A7038605146204600F068FA019850B1C6
:101F900078490840216808650198800F38600199E8
:101FA000204600F0A3FA30050BD4E843000508D41E
:101FB00021684FF400600865C7F80090204600F0E3
:101FC000B8FAB00510D4E84380050DD42068D0F8E5
:101FD000D820D0F8E01011404FF400720265C7F825
:101FE0000090204600F0A3FA30030BD4E84300032E
:101FF00008D421684FF400200865C7F800902046F7
:1020000000F02AFAF0030BD4E843C00308D4216897
:102010004FF480300865C7F80090204600F085FA3C
:1020200070030BD4E843400308D421684FF48020A8
:102030000865C7F80090204600F076FAB0030ED489
:10204000E84380030BD421684FF400300865C7F8DB
:102050000090D4F89C0040F08000C4F89C000098E8
:1020600050B144490840216808650098800F3860E5
:1020700000992046FFF754FEB8F1000F0DD03D49FE
:1020800008EA0100216808654FEA98703860D4F8C2
:102090009C0040EA0800C4F89C0037492068884248
:1020A0005CD160688168890758D0016A01F00F022D
:1020B000416A1140026A476A02F0300207EA0207E9
:1020C000026A436A02F4C07203EA0208026A456ABD
:1020D00002F4FC4205EA0205026A466A02F4F022B2
:1020E000D0F8249006EA0206D0F820A003D00162BE
:1020F000204600F016FA2FB1606807623946204684
:1021000000F011FA6FEA090040060ED46FEA0A00E7
:1021100040060AD46068C16BC26B090C402303629D
:1021200002F03F02204600F0FDF9B8F1000005D0B2
:10213000616808624146204600F0F2F935B16068F6
:102140000562D4F89C002843C4F89C0036B160684E
:102150000662D4F89C003043C4F89C00D4F89C007C
:10216000002802D02046FFF7DAFDBDE8FE8F000010
:1021700010A80040FFFFCF3F00A000402DE9F04134
:1021800094B08D494C2204466846FEF7ECF864B1E1
:102190008A4E2068B04202D100F58070606094F8E9
:1021A00098004FF0000820B108E0012014B0BDE80D
:1021B000F081204684F8998000F002F92068816956
:1021C00021F01001816100F0A1FA0327054604E027
:1021D00000F09CFA401B0A2811D82068806900078B
:1021E000F6D42068816941F00101816100F08EFA26
:1021F00005460DE000F08AFA401B0A2808D9D4F8F9
:102200009C0040F00100C4F89C0084F89870CCE772
:1022100020688069C007EDD02068816941F0020123
:102220008161207C01282068816937D041F040011C
:102230008161607C01282068816932D021F480416D
:102240008161A07C0128206881692DD041F48051F2
:10225000816120688169A26821F440711143816124
:102260002068816921F0A40181612068016921F061
:1022700010010161E068012819D010B302281BD0B9
:102280002068816941F0800181612068016941F025
:1022900010010161E06803280ED012E021F0400136
:1022A000C6E741F48041CBE721F48051D0E72068B4
:1022B000816941F0040103E02068816941F0200157
:1022C0008161207E6FF0FF02E169A38A400602EB84
:1022D0000121A0F100700843216A491E0843110240
:1022E00001EB034318432368D861A068B0F5407F31
:1022F00010D1D4E90A03401E02EB03221043226BE3
:102300000B1303EB02121043A28C01EB02410843B2
:102310002168C860206E30B12068D0F8C010626EAD
:102320001143C0F8C010D4E91701C842694609D06A
:10233000206850F8C82FA36E22F0070251F823300E
:102340001A430260206C48B1206850F8BC2F636CBF
:1023500022F0070251F823301A430260A06C50B1FA
:10236000206850F8BC2FE36C22F0700251F8233043
:1023700042EA03120260206D50B1206850F8BC2F71
:10238000636D22F4E06251F8231042EA01210160FA
:102390002068B04204D16068816821F00301816047
:1023A000C4F89480C4F89C80012084F898002046EA
:1023B000FEF702FEFAE600008C5F000800A0004075
:1023C00000B50068B3B01F49884238D11E48016883
:1023D00041F480710160006800F4807032901A4806
:1023E0000C38016841F008010160006800F0080045
:1023F00032904FF40040009040031A90684600F07D
:10240000E1FB002103202D9002203090CDE92E0128
:10241000092031900D482DA900F08CF805221320D9
:10242000114600F027FA132000F017FA0848006858
:10243000416D41F00101416506480168016033B01A
:1024400000BD000000A00040EC440258000C0258FF
:102450006400002414A800407047000000B58DB04F
:102460001A4840216A460AABFFF75CFC00981849FD
:10247000A0F50070013806D0012806D0022821D02E
:10248000032804D120E0134800E013480860BDF899
:102490002800DFED120A40BA00EE100A0868B8EE14
:1024A000400A20EE200ADFED0E0A80EE201ABDEE73
:1024B000C10A10EE102A0280BDF82A1049BA4180E4
:1024C0000DB000BD0748E1E70748DFE764000024DE
:1024D000080000240C000024100000240000B44375
:1024E00000F8FF451400002418000024704790F8FD
:1024F0009810012907D0D0F89C1041F00401C0F8D1
:102500009C1001207047022180F8981001688A69A8
:1025100022F001028A610021C0F89C100846704731
:1025200070477047704770477047704770477047F3
:10253000704770472DE9F84F664C00224FF0B04AC3
:102540004FF0010B4FF003084FF00F09BBE00BFAFF
:1025500002F6334073D00D7905F00305012D01D04B
:10256000022D15D18768550008FA05FC27EA0C07EB
:10257000D1F80CC00CFA05FC4CEA070CC0F808C0F6
:102580004568B5430E79C6F3001696402E43466063
:102590000D79ED43AD0708D0C668550008FA05F778
:1025A000BE438F68AF403743C7600D7905F0030520
:1025B000022D11D1D50800EB85073E6A5507ED0EB7
:1025C00009FA05FC26EA0C06D1F810C00CFA05FC45
:1025D0004CEA060CC7F820C00668550008FA05F753
:1025E000BE430F7907F00307AF40374307604D68DC
:1025F00015F4403F66D0384D2E6846F002062E6036
:102600002D6822F0030606F1B04605F0020500959C
:10261000D6F8087495074FEA157C09FA0CF5AF4314
:102620002E4DA84201D1002529E02D4DA84201D10F
:10263000012524E02B4DA84202D102251FE041E0F4
:10264000294DA84201D1032519E0284DA84201D106
:10265000042514E0264DA84201D105250FE0254DA3
:10266000A84201D106250AE0234DA84201D1072541
:1026700005E0224DA84201D1092500E00A2505FA0E
:102680000CF53D43C6F80854DAF8005056464F683A
:102690009D43FF0200D51D43356075684F689D431B
:1026A000BF0200D51D43756065684E689D43B60343
:1026B00000D51D43656025684E689D43F60300D52F
:1026C0001D432560521C0B6833FA02F57FF43FAFBF
:1026D000BDE8F88F80000058F4440258000002580A
:1026E0000004025800080258000C0258001002585A
:1026F0000014025800180258001C02580024025806
:102700000AB1816170470904FBE700000148806855
:102710007047000054000024024881680278114488
:102720008160704754000024032010B500F0C2F807
:1027300000F0F8FF0F4A11681268C1F303230E4935
:10274000CB5C03F01F03D84002F00F02895C0B4AF8
:1027500001F01F0120FA01F11160094908600F2002
:1027600000F010F808B1012010BD00F075F800204D
:1027700010BD0000184402584C5F000804000024FB
:102780000000002470B50D4D04462A78A2B14FF424
:102790007A700B49B0FBF2F00968B1FBF0F001F080
:1027A000DAFC48B9102C07D200222146501E00F056
:1027B00061F800206C6070BD012070BD54000024E1
:1027C00000000024134A41781160111D03780A1D8E
:1027D000E3B143680B60017BC37A090741EA0361F7
:1027E000837A41EAC341437B41EA8341837B41EAE7
:1027F0004341C37B41EA0341437A41EA0321037A1F
:10280000007841EA430101431160704700200860ED
:102810001060704798ED00E0BFF35F8F04480168D7
:1028200021F4803101600249002070310860704756
:1028300024ED00E0074940F00100086005487038C9
:10284000016841F480310160BFF34F8FBFF36F8F98
:102850007047000094ED00E07047002809DB01217B
:1028600000F01F0291404009800000F1E020C0F814
:10287000001170470E4BF0B41B68C3F30223C3F181
:102880000704042C00D904241D1D072D01D20023A8
:1028900000E0DB1E012606FA04F56D1E0D409D408A
:1028A0009E40761E164045EA0601F0BC02F057BF76
:1028B0000CED00E0064A00F0070110684FF6FF0338
:1028C000184040EA012003490843106070470000A7
:1028D0000CED00E00000FA05124970B50A68D24319
:1028E000520705D5096801F00701814212D117E0AE
:1028F0000A6822F0070202430A60FFF707FF094D4A
:102900004FF47A760446083D06E0FFF7FFFE001B11
:10291000B04201D9012070BD2868C0438004F4D4BE
:10292000002070BD0C48025810B500F0B5FE0549F6
:102930000968054AC1F30211515C01F01F01C8404A
:1029400010BD0000204402584C5F0008484910B5F3
:102950000A68096802F00302454B1B1DC1F30531EB
:102960001B68434C1434C3F300132468C4F3CC0431
:1029700014FB03F300EE103AB8EE400AE9B33C4B07
:102980009FED3C1A1033F7EE000A62B1DFED3A1A00
:10299000012A01D0022A5ED002EE101AF8EE422A75
:1029A00081EEA22A1AE0324A283A1468A4060DD50C
:1029B0001268C2F3C104314AE24001EE902AF8EEF7
:1029C000612A01EE901AF8EE611A05E001EE901A04
:1029D000DFED2B2AF8EE611A82EEA12A1968C1F305
:1029E000080101EE901A1968F8EE611A40EE011A1A
:1029F00031EEA00A22EE000A00E033E0C1F34621E6
:102A000001EE101AB8EE411A31EE201AC0EE011A8A
:102A1000BCEEE11A80ED001A1968C1F3064101EE1F
:102A2000101AB8EE411A31EE201AC0EE011ABCEEAF
:102A3000E11A80ED011A1968C1F3066101EE101A5E
:102A4000B8EE411A71EE200A80EE201ABCEEC10ADF
:102A500080ED020A10BD01EE901ADFED0A2AF8EEB1
:102A6000611AB9E7002101604160816010BD00007A
:102A700028440258000000390024744A0090D00312
:102A80000024744C001BB74B484910B50A6809680C
:102A900002F00302454B1B1DC1F305511B68434C5B
:102AA0001C34C3F300232468C4F3CC0414FB03F3E5
:102AB00000EE103AB8EE400AE9B33C4B9FED3C1AE9
:102AC0001833F7EE000A62B1DFED3A1A012A01D09D
:102AD000022A5ED002EE101AF8EE422A81EEA22AF5
:102AE0001AE0324A283A1468A4060DD51268C2F3D7
:102AF000C104314AE24001EE902AF8EE612A01EE6B
:102B0000901AF8EE611A05E001EE901ADFED2B2A1B
:102B1000F8EE611A82EEA12A1968C1F3080101EEEC
:102B2000901A1968F8EE611A40EE011A31EEA00A07
:102B300022EE000A00E033E0C1F3462101EE101A54
:102B4000B8EE411A31EE201AC0EE011ABCEEE11ABD
:102B500080ED001A1968C1F3064101EE101AB8EEB3
:102B6000411A31EE201AC0EE011ABCEEE11A80EDD6
:102B7000011A1968C1F3066101EE101AB8EE411A84
:102B800071EE200A80EE201ABCEEC10A80ED020A26
:102B900010BD01EE901ADFED0A2AF8EE611AB9E7CE
:102BA000002101604160816010BD0000284402588E
:102BB000000000390024744A0090D0030024744CB3
:102BC000001BB74B2DE9F84F044600680025FB4F6A
:102BD000DFF8ECA32E46010104F1240000901DD57E
:102BE000206E50B1B0F5801F0CD0B0F5001F0ED094
:102BF000B0F5401F1DD001250FE0386840F40030CB
:102C0000386016E00221201D01F058FE03E0009814
:102C1000022101F0DDFE05000BD02E462088C00504
:102C200023D5606D05281ED2DFE800F00C11161BBD
:102C30001B00DAF80010226E21F440111143CAF88B
:102C40000010EBE7386840F40030386009E00021FC
:102C5000201D01F033FE03E00098002101F0B8FED2
:102C60000546ADB100E001252E462088DFF85483EB
:102C700040052FD5D4F8A000B0F5C00F28D010DC47
:102C8000B8B1B0F5001F19D0B0F5800F0FD11AE020
:102C9000DAF80010626D21F007011143CAF8001044
:102CA000E3E7B0F5000F13D0B0F5200F10D00125E9
:102CB0000FE0386840F40030386009E00021201D42
:102CC00001F0FCFD03E00098002101F081FE0546C3
:102CD0008DB12E462088000530D5D4F8A400B0F17F
:102CE000407F29D011DCC0B1B0F1807F1AD0B0F1A3
:102CF000007F10D11BE0D8F80010D4F8A02021F4F8
:102D000060011143C8F80010E4E7B0F1806F13D000
:102D1000B0F1A06F10D001250FE0386840F400300A
:102D2000386009E00021201D01F0C8FD03E0009893
:102D3000002101F04DFE05467DB12E462068DFF8EA
:102D400088B280011FD5A06CD8B110280FD02028E0
:102D500012D0302815D0012514E0D8F80010D4F88E
:102D6000A42021F0E0611143C8F80010E6E73868BC
:102D700040F40030386004E00221201D01F09EFD87
:102D800005466DB12E462088C0042BD5A06DB0F548
:102D9000005F20D00DDCA0B1B0F5805F0FD115E051
:102DA000DBF80010A26C21F030011143CBF80010C9
:102DB000E9E7B0F5405F13D0B0F5804F10D00125A2
:102DC0000FE0386840F40030386009E00021201D31
:102DD00001F074FD03E00098002101F0F9FD0546C3
:102DE00085B12E462088800429D5E06DB0F5403F9E
:102DF00023D010DC08B3B0F5803F14D0B0F5003F0D
:102E00000FD115E0DAF80010A26D21F4E041114372
:102E1000CAF80010E6E7B0F5802F0ED0B0F5A02F6D
:102E20000BD001250AE00121201D01F047FD03E040
:102E30000098012101F0CCFD05468DB12E46208879
:102E400040042AD5D4F8A800B0F1405F23D010DCAC
:102E500008B3B0F1805F14D0B0F1005F0FD115E07E
:102E6000DAF80010E26D21F4E0211143CAF80010F5
:102E7000E5E7B0F1804F0ED0B0F1A04F0BD00125A7
:102E80000AE00121201D01F019FD03E00098012155
:102E900001F09EFD05466DB12E46208800041FD529
:102EA000A06ED8B1B0F1805F0ED0B0F1005F10D04D
:102EB000012514E0D8F80010D4F8A82021F0E04152
:102EC0001143C8F80010E8E7386840F40030386073
:102ED00004E00121201D01F0F1FC05466DB12E46F4
:102EE0002068C0011ED5606CD0B101280ED0022828
:102EF00011D0032814D0012513E0DAF80010A26ED7
:102F000021F040511143CAF80010E9E7386840F455
:102F10000030386004E00221201D01F0CFFC05469E
:102F200065B12E462068400258D52848016841F412
:102F300080710160FFF7EAFB81460EE0DBF80010CC
:102F4000626C21F003011143CBF80010EAE7FFF7B0
:102F5000DDFBA0EB090064282ED81C480068C005E2
:102F6000F5D555BB174818300068B4F8AC1000F41C
:102F7000407001F4407188420DD012481830016849
:102F8000026821F4407142F480320260026822F447
:102F9000803202600160D4F8AC00B0F5807F2CD1A3
:102FA000FFF7B4FB814613E0FFF7B0FBA0EB09018C
:102FB00041F2883081420BD903250EE02C4402589F
:102FC00050440258584402584C4402580048025891
:102FD000FE4800688007E7D57DB12E462078DFF8EF
:102FE000F093C0073CD0606F182837D025DC78B349
:102FF000082828D0102824D12BE0D4F8AC00C0F346
:10300000012103290ED0F2484438016821F47C5193
:103010000160EE480168B4F8AC20C2F30B02114322
:103020000160DBE7EA4944390A68EA4B22F47C5242
:1030300003EA101002430A60EBE720280ED028288C
:103040000CD001250BE00121201D01F037FC04E02C
:1030500004E00098012101F0BBFC05465DB12E465D
:10306000207880071ED5206F062819D2DFE800F0EF
:10307000160C11161616D9F80010626F21F03801DF
:103080001143C9F80010EBE70121201D01F016FCE7
:1030900003E00098012101F09BFC054675B100E0BA
:1030A00001252E46207840071FD5D4F88C0006282D
:1030B00019D2DFE800F0160C11161616D9F8001018
:1030C000226F21F007011143C9F80010EAE701213E
:1030D000201D01F0F3FB03E00098012101F078FCD2
:1030E00005469DB100E001252E46207880062BD5AF
:1030F000D4F88800B0F1405F24D011DC10B3B0F1F7
:10310000805F15D0B0F1005F10D116E0D8F8001044
:10311000D4F88C2021F007011143C8F80010E4E72F
:10312000B0F1804F0ED0B0F1A04F0BD001250AE0D6
:103130000021201D01F0C2FB03E00098022101F0F4
:1031400047FC05468DB12E46207840062BD5D4F895
:103150009400B0F5406F24D011DC10B3B0F5806F4F
:1031600015D0B0F5006F10D116E0D9F80010D4F8E2
:10317000882021F0E0411143C9F80010E4E7B0F5E0
:10318000805F0ED0B0F5A05F0BD001250AE00021D2
:10319000201D01F093FB03E00098022101F018FCD0
:1031A00005468DB12E46207800062BD5D4F8980020
:1031B000B0F5C04F24D011DC10B3B0F5005F15D0CE
:1031C000B0F5804F10D116E0D8F80010D4F8942054
:1031D00021F4E0511143C8F80010E4E7B0F5004FC6
:1031E0000ED0B0F5204F0BD001250AE00021201DA4
:1031F00001F064FB03E00098022101F0E9FB0546C1
:1032000045B12E46207800071CD5E06FB0F5805FF1
:103210000AD00FE0D8F80010D4F8982021F46041CB
:103220001143C8F80010EDE70098022101F0D0FB2F
:1032300000B10126D9F80010E26F21F4405111438A
:10324000C9F800102078C00613D5D4F89000B0F566
:10325000807F05D10098022101F0BAFB00B1012660
:10326000D8F80010D4F8902021F440711143C8F828
:1032700000102068000316D5D4F89C0038B1B0F5D2
:10328000803F09D0B0F5003F0BD001250AE00021B6
:10329000201D01F013FB03E00098022101F098FBD0
:1032A000054685B12E462068400322D5D4F880001B
:1032B000B0F5801F11D0B0F5001F13D0B0F5401F3E
:1032C00015D0012514E0D8F80010D4F89C2021F482
:1032D00040311143C8F80010E5E7386840F4003089
:1032E000386004E00098012101F072FB054655B1F9
:1032F0002E462068C0031CD5E06C70B1B0F5803F4D
:1033000010D0012514E0D9F80010D4F8802021F461
:1033100040111143C9F80010EBE7386840F4003061
:10332000386004E00221201D01F0C8FA0546CDB145
:103330002E462068800005D50098022101F048FB48
:1033400000B10126206880031BD5A06FB8B1B0F58D
:10335000807F10D0B0F5007F11D0B0F5407F0ED047
:1033600001250DE0DBF80010E26C21F480311143FF
:10337000CBF80010DDE7386840F4003038605DB30A
:103380002E462068C00207D5DAF80010E26E21F060
:1033900000411143CAF800102068800207D5DAF80E
:1033A0000010626E21F080711143CAF8001020688D
:1033B00040000AD506484438016821F40041016004
:1033C0000168D4F8B0201143016006E0704402584F
:1033D00054440258CFFFFF001AE02068002807DAA3
:1033E000DBF80010226D21F040511143CBF80010A2
:1033F0002068000208D5D9F80010D4F8842021F400
:1034000040011143C9F800105EB10120BDE8F88FFA
:10341000D9F80010A26F21F440711143C9F80010CF
:10342000AFE70020F2E700002DE9F05F04000D4651
:103430007ED0DFF84492D9F8000000F00F00A842D7
:103440000CD2D9F8001021F00F012943C9F800105F
:10345000D9F8000000F00F00A84269D12078874E0B
:1034600040070AD52069316801F07001884204D90B
:10347000316821F07001014331602078DFF800826B
:1034800000070CD560694146D8F8002002F07002B0
:10349000904204D90A6822F0700202430A60207840
:1034A000C0060CD5A0694146D8F8002002F4E062BD
:1034B000904204D90A6822F4E06202430A6020784C
:1034C000DFF8C0B180060CD5E0695946DBF8002072
:1034D00002F07002904204D90A6822F0700202439E
:1034E0000A60207880070AD5E068316801F00F0192
:1034F000884204D9316821F00F01014331602078FE
:10350000C0073DD03068A16820F470600843306087
:103510005A4960681839022818D0032819D0096858
:10352000012819D04907002949DADFF850A100E045
:1035300045E0AAF1080ADAF8001021F0070101437A
:10354000CAF80010FFF7E2F8074611E0096889039E
:10355000E9E709688901E6E7C905E4E7FFF7D6F876
:10356000C11B41F28830814202D90320BDE8F09F9F
:10357000DAF80000616800F03800B0EBC10FEDD15F
:10358000207880070AD5E068316801F00F01884291
:1035900004D2316821F00F0101433160D9F80010E5
:1035A000484601F00F01A9420BD9016821F00F0133
:1035B00029430160006800F00F00A84201D00120FB
:1035C000D4E7207840070AD52069316801F07001FE
:1035D000884204D2316821F07001014331602078C3
:1035E00000070CD560694146D8F8002002F070024F
:1035F000904204D20A6822F0700202430A602078E6
:10360000C0060CD5A0694246D8F8001001F4E0616C
:10361000884204D2116821F4E061014311602078EE
:1036200080060CD5E0695946DBF8002002F07002F4
:10363000904204D20A6822F0700202430A6000F04D
:1036400071F83168C1F303220F498A5C02F01F024E
:10365000D040326802F00F02895C0C4A01F01F0171
:1036600020FA01F111600A4908600A480068BDE8C3
:10367000F05FFFF787B8000000200052184402589E
:103680001C440258204402584C5F000804000024E7
:10369000000000245800002400B500F043F80B4A55
:1036A00011681268C1F303230949CB5C03F01F03BF
:1036B000D84002F00F02895C064A01F01F0120FA8F
:1036C00001F11160044A1060084600BD1844025818
:1036D0004C5F0008040000240000002400B5FFF740
:1036E000DBFF05490968054AC1F30211515C01F08D
:1036F0001F01C84000BD00001C4402584C5F000878
:1037000000B5FFF7C9FF05490968054AC1F3022161
:10371000515C01F01F01C84000BD00001C4402586C
:103720004C5F0008434830B50068444C10F0380145
:10373000414808D00211082903D010290BD01829BC
:103740000BD0104630BD21688906FBD52168C1F336
:10375000C101C84030BD3A4830BD364918310A6809
:10376000096802F00302334B1C33C1F305111B68D7
:10377000304D03F0010324352D68C5F3CC0515FB4E
:1037800003F300EE103AB8EE400AE9B3294BDFED3F
:103790002D0A2033B7EE001A62B1DFED2B1A012A91
:1037A00001D0022A3CD002EE101AF8EE422A81EE35
:1037B000A22A17E0226892060CD52268C2F3C10241
:1037C000D04001EE900AF8EE612A01EE901AF8EE70
:1037D000611A05E001EE901ADFED1C2AF8EE611A7D
:1037E00082EEA12A1868C0F3080001EE900A18685A
:1037F000F8EE611A40EE201A31EE810A22EE000A3C
:10380000C0F34620401C00E011E000EE900AF8EE04
:10381000600A80EE201ABCEEC10A10EE100A30BD1C
:1038200001EE901ADFED0A2AF8EE611AD8E70020BF
:1038300030BD0000104402580090D00300440258EC
:1038400000366E01000000390024744A0024744CD4
:10385000001BB74B2DE9F047040078D02078DFF843
:10386000F893FE4EFE4DC00747D0D9F800003168EE
:1038700000F03800102815D0182803D101F00300FB
:1038800002280FD06068B0F5803F12D010B1B0F5BB
:10389000A02F18D0286820F480302860286820F4F1
:1038A000802009E02868800327D560680028D4D0EC
:1038B00023E0286840F480302860606888B1FEF713
:1038C00025FF074609E0286840F480202860F0E7DB
:1038D000FEF71CFFC01B64287ED828688003F7D53C
:1038E0000BE0FEF713FF074604E0FEF70FFFC01BD7
:1038F0006428F1D828688003F7D42078800753D54E
:10390000D9F80000316810F03800DFF858830ED085
:10391000182801D188070AD0E068A0B3296821F0EF
:10392000190101432960FEF7F1FE074627E02868E8
:10393000400702D5E06800288FD02868E16820F0B1
:10394000190008432860FEF7E1FE074605E0D1E0D4
:10395000FEF7DCFEC01B0228BED828684007F7D55A
:10396000D8F80010227C21F0FE4141EA0261C8F83B
:10397000001019E0FEF7CAFEC01B0228ACD8286868
:103980004007F7D5ECE7FFE7286820F00100286042
:10399000FEF7BCFE074604E0FEF7B8FEC01B022897
:1039A0009AD828684007F7D42078C00646D5D9F8B9
:1039B0000000316800F03800DFF89C820828A8F188
:1039C000040812D0182803D101F0030001280CD0FC
:1039D000E0690028286800E0C7E020D040F08000BF
:1039E0002860FEF793FE074615E02868C00502D55B
:1039F000E06980287ED1D8F8001094F8202021F0CA
:103A00007C5141EA0261C8F8001017E0FEF77EFE23
:103A1000C01B0228A0D82868C005F7D5EBE720F026
:103A200080002860FEF772FE074604E0FEF76EFE97
:103A3000C01B022890D82868C005F7D4207800075A
:103A400028D5864960694C310028884608460968AF
:103A500010D041F001010160FEF758FE074604E076
:103A6000FEF754FEC01B022888D8D8F80000800753
:103A7000F6D50FE021F001010160FEF747FE074691
:103A800004E0FEF743FEC01B02286ED8D8F8000001
:103A90008007F6D42078800622D5A06900282868FF
:103AA0000FD040F480502860FEF730FE074604E057
:103AB000FEF72CFEC01B022857D828688004F7D5D3
:103AC0000EE020F480502860FEF720FE074604E058
:103AD000FEF71CFEC01B022847D828688004F7D4D4
:103AE000207840074FD5DFF88081D8F8001041F4E6
:103AF000807100E00DE1C8F80010FEF707FE0746F0
:103B000004E0FEF703FEC01B64282ED8D8F800009E
:103B1000C005F6D5514FA068483701280AD008B132
:103B2000052813D0386820F001003860386820F08C
:103B3000040002E0386840F001003860A06841F2FB
:103B4000883A98B1FEF7E2FD80460AE0386840F016
:103B500004003860EEE7FEF7D9FDA0EB08015145FF
:103B600003D838688007F6D50DE07FE0FEF7CEFD7C
:103B7000804605E0FEF7CAFDA0EB0801514575D867
:103B800038688007F6D4616AF1B3D9F80000DFF82D
:103B9000CC80C0F3C200032808F1080867D0286869
:103BA000022920F08070286003D0FEF7AFFD0446A4
:103BB00084E0FEF7ABFD074604E0FEF7A7FDC01B5F
:103BC000022878D828688001F7D4306840F2F331B1
:103BD0008843E16A40EA0110A16A0843306094F822
:103BE00034004FF4FE02218E4002491EA0F5007001
:103BF00080B2C1F308010843218F491E02EA014146
:103C0000084394F83C1000E085E01202491E02EAE5
:103C100001610843C8F800001048001D016821F048
:103C2000010101600D490C310A684FF6F8739A439F
:103C3000A36C42EAC3020A600168226C21F00C0105
:103C4000114301600168626C21F0020111430160BF
:103C5000016841F480310BE01044025828440258B6
:103C600000440258044402580048025823E029E066
:103C70000160016841F400310160016841F4802174
:103C80000160016841F001010160286840F0807026
:103C90002860FEF73BFD044604E0FEF737FD001BFD
:103CA000022808D828688001F7D534E0FEF72EFDF9
:103CB000001B022802D90320BDE8F0872868800194
:103CC000F4D428E03268D8F80000012921D0A36A92
:103CD00002F0030199421CD1E16AC2F3051291423C
:103CE00017D1216BC0F30802491E8A4211D1616BC2
:103CF000C0F34622491E91420BD1A16BC0F306428C
:103D0000491E914205D1E16BC0F30660491E814214
:103D100001D00120D0E70020CEE700002DE9F041DE
:103D2000040027D00025A5624C4F20684C4A4D4B1B
:103D3000B84206D0904204D0984202D0E1680F29E0
:103D400018D8E16B012606EB511CE1680831C9085F
:103D5000B84201FB0CF105D0904203D0984201D04B
:103D6000082907D8B84203D0904201D0984204D124
:103D7000102902D90120BDE8F08194F8810020B912
:103D8000204684F8805000F06FF8022084F881000B
:103D90002068016821F0010101602068816801F458
:103DA000F812A169B1F1806F10D16168B1F5800F8F
:103DB00001D019B10AE0A16B21B107E0A16BB1F10B
:103DC000805F03D1016841F480510160A16AE0691C
:103DD0000843E16B11430843E168084321688860A8
:103DE000616A606BA2690843A16B114308432169B2
:103DF000084361690843216A084361680843E16C2C
:103E00000843A1680843A16C0843A16D08432168D9
:103E1000C860606868B92068816821F4C05141F4C5
:103E2000006181602068816821F4C06141F4806193
:103E300081602068016D21F0010101656068400228
:103E400006D52068C168626D21F000411143C16050
:103E5000C4F8845084F8816000208CE70030014071
:103E600000380040003C0040F0B50068B3B01F4986
:103E7000884238D180140090002468461694FEF7DA
:103E8000A1FE1B48016841F480410160006800F414
:103E90008040329016480838016841F00201016004
:103EA000016801F002013291016841F004010160F2
:103EB00000680226032700F0040032900620052542
:103EC0003195CDE92D060B482DA9CDE92F47FEF7F9
:103ED00031FB30033195CDE92D0607482DA9CDE9F9
:103EE0002F47FEF727FB33B0F0BD0000003800403D
:103EF000E844025800080258000402582DE9FF4F18
:103F000083B0044600201D469346109F019094F80C
:103F10008000012814D04FF0010A84F880A0FEF739
:103F2000F5FB804694F881002E4663680022012844
:103F30004FF480010CD08B4208D1A36833B903E061
:103F4000022007B0BDE8F08F042801D0022037E03E
:103F5000049898B3BBF1000F31D07DB394F8810081
:103F6000042802D0052084F8810091461046C4F848
:103F70008420C4F864B0A4F86A50A4F86850049A85
:103F8000E265A4F86250A4F860502067606720687A
:103F900042686FF30F022A4342602068026842F0D1
:103FA000010202606068884204D12068016841F41F
:103FB00000710160E0680F2836D839E0FFE7012082
:103FC00084F88020BDE72068416989070DD565B177
:103FD000E16D09680162E06D001DE065B4F8620002
:103FE000401EA4F86200B4F862502068416948F2AB
:103FF000080211420DD066B1006B616E0860606E00
:10400000001D6066B4F86A00401EA4F86A00B4F8A7
:104010006A60FEF77BFBA0EB0800B84202D3781C75
:1040200002D087E0002F32D055EA0600CBD167E0FE
:1040300007282ED861E02068416989070DD565B150
:10404000E16D09880184E06D801CE065B4F86200D0
:10405000401EA4F86200B4F8625020684169C907A4
:104060000DD066B1008E616E0880606E801C606647
:10407000B4F86A00401EA4F86A00B4F86A60FEF75B
:1040800045FBA0EB0800B84202D3781C01D051E0F8
:104090008FB355EA0600CED132E020684169890726
:1040A0000ED56DB1E16D097880F82010E06D401CEF
:1040B000E065B4F86200401EA4F86200B4F86250F3
:1040C00020684169C9070ED06EB190F83000616E6A
:1040D0000870606E401C6066B4F86A00401EA4F868
:1040E0006A00B4F86A60FEF711FBA0EB0800B84262
:1040F00002D3781C01D01DE0E7B155EA0600CCD10F
:104100000022434608212046009700F0B7FD28B161
:10411000D4F8840040F02000C4F88400204600F069
:104120004FFD84F8809084F881A0D4F8840080B199
:10413000012006E7204600F043FD84F88090D4F883
:10414000840040F48070C4F8840084F881A00320C7
:10415000F7E60198F5E6401EB0F1807F10B501D377
:10416000012010BD4FF0E02460610F21601701F0C5
:10417000F6FA0020A06107202061002010BD7047E2
:1041800070477047704770B50446006801694FF08A
:104190000005C943890715D4C168C943890711D4EB
:1041A000E91E016101202077206880698007204690
:1041B00002D0FFF7E7FF04E000F0A7F8204600F088
:1041C000A5F8257720680169C943490717D4C16854
:1041D000C943490713D46FF004010161022020771D
:1041E0002068806910F4407F204602D0FFF7CAFFA4
:1041F00004E000F08AF8204600F088F8257720686F
:104200000169C943090716D4C168C943090712D413
:104210006FF008010161042020772068C0698007E1
:10422000204602D0FFF7AEFF04E000F06EF8204613
:1042300000F06CF8257720680169C943C90617D4D6
:10424000C168C943C90613D46FF010010161082089
:1042500020772068C06910F4407F204602D0FFF725
:1042600091FF04E000F051F8204600F04FF8257768
:1042700020680169C943C90708D1C168C943C90792
:1042800004D1891E0161204600F042F820680169CE
:10429000C943090609D4C168C943090605D46FF0AA
:1042A000800101612046FFF76BFF20680169C94367
:1042B000C90509D4C168C943090605D46FF48071E2
:1042C00001612046FFF75BFF20680169C943490689
:1042D00009D4C168C943490605D46FF040010161A2
:1042E000204600F027F820680169C94389060BD4ED
:1042F000C168C943890607D46FF0200101612046D7
:10430000BDE87040FFF73DBF70BD704770470000CB
:1043100010B50068B0F1804F09D10548FCF7B0FA3C
:10432000034800F003F9BDE8104000F079BD10BD6E
:10433000EC0300247047704770B50446D0F8840041
:10434000D4F88860216889684FF01005090618D5EF
:10435000212816D12068083050E8001F21F0800184
:1043600040E80012002AF5D1A06F38B1FCF74AFFEF
:1043700020B1A06FFDF7F6F8202821D0204600F0EC
:10438000D7FE20688068400618D5222E16D12068F6
:10439000083050E8001F21F0400140E80012002AD8
:1043A000F5D1E06F38B1FCF72DFF20B1E06FFDF7DC
:1043B000D9F8202804D0204600F090FE002070BDDF
:1043C000C4F88C50032070BD704710B5040003D0B2
:1043D000D4F8840010B107E0012010BD002084F85B
:1043E0008000204600F026F82420C4F884002068CD
:1043F000016821F001010160204600F0B1FE0128B2
:10440000EBD0A06A10B1204600F05CFD2068416846
:1044100021F4904141602068816821F02A01816087
:104420002068016841F0010101602046BDE81040AC
:1044300000F0ACBD30B523490446006887B088421F
:104440003ED12149086840F00200086008681E4912
:1044500000F0020005901831086840F08000086004
:104460000868194900F0800005900831086840F09C
:104470001000086008686946144D00F010000590AF
:1044800001200290022003900190042004900090EB
:104490002846FEF74FF80B2004900820694600904C
:1044A0002846FEF747F800229C201146FEF7E2F965
:1044B0009C20FEF7D2F92068016841F010010160EC
:1044C00007B030BD001C0140D8440258001002580B
:1044D00030B4D0F88830202B20D1E1B1DAB190F897
:1044E0008030012B1AD0012380F880300023C3666E
:1044F0000B4C0368A3420BD05B681B0208D5036812
:1045000053E8004F44F0806443E80045002DF6D1A5
:1045100030BC01F01BB8012030BC70470220FBE723
:10452000000C005870477047FEE7000070B52DED95
:10453000028B04469FED278ADFED278A90ED030A60
:104540002648B0EE481AF0EE680A00F065F8234DF0
:10455000B0EE481AA035F0EE680A85ED030A94ED36
:10456000040AA5F17C0000F057F885ED040A94EDEB
:10457000050AB0EE481AF0EE680AA5F1580000F0FE
:104580004BF885ED050A94ED060A294685ED060AE5
:10459000A1F13400FBF772FFA5F1340090ED060A9B
:1045A000BDEEC00A10EE101A90ED050A0BB2BDEE7A
:1045B000C00A10EE101A90ED040A0AB2BDEEC00A4D
:1045C000BDEC028B10EE100ABDE8704001B204A0F1
:1045D00001F0A2B80AD7A33B00000000300300247A
:1045E00025642C25642C25640A00000080EC030A55
:1045F000F7EE000A9FED070A80ED030A80ED040A3A
:10460000C0ED050A80ED060A80ED070AC0ED080A34
:10461000704700000000000090ED045A90ED033A4E
:10462000D0ED062A70EEC50AD0ED081AD0ED073A93
:1046300090ED002A01EE203AF0EE620A41EE612A86
:1046400051EE210A70EEE30A41EE613A30EE822A21
:10465000D0ED050A41EE020A90ED012A42EE011A60
:1046600090ED021AF0EE604A30EE814A80EE841A34
:1046700083EE842A30EE434AB0EE430A41EE604AAC
:1046800001EE040A80ED030A02EE045AB0EE624A1B
:1046900042EE643A01EE624A80ED045AC0ED054AEA
:1046A00080ED064A42EE441AC0ED073AC0ED081A02
:1046B00070471FB500240094019402940394FEF700
:1046C000ABF801208DF80C001F218DF80810872110
:1046D0008DF809108DF80D008DF8000068468DF8F2
:1046E0000A408DF80E408DF8014001948DF80B4082
:1046F0008DF80F40FEF766F80420FEF79BF81FBD0B
:10470000FEE780EC030A7047FEE770B590ED000A03
:10471000D1ED000A14460D4620EE000A064600EED2
:10472000A00AD2ED000A00EEA00A01F0F1F9B5EE00
:10473000C00AF1EE10FA11DDD6ED000A80EE801A03
:1047400086ED001AD5ED000A80EE801A85ED001A7C
:10475000D4ED000A80EE801A84ED001A70BD90ED51
:10476000051AB8EEC11A31EE400A90ED001A61EE5A
:10477000001A90ED041A00EE201A80ED041A90ED54
:10478000012AD0ED022A22EE011A90ED032A80EDD3
:10479000030A806930EE422A31EE810A62EE822AF3
:1047A00082EEA02A00EE900AF8EEE00A30EE020A4D
:1047B000F4EEC00AF1EE10FA03D200EE100AB8EEE1
:1047C000C00A404200EE900AF8EEE00AF4EEC00A99
:1047D000F1EE10FA03DD00EE100AB8EEC00ABDEEED
:1047E000C00A10EE100A70477047000070B51446FA
:1047F0000D4606462DED088BB0EE609AF0EE409A1D
:1048000029EE090AB0EE418AF7EE00AAB0EE00AA3E
:1048100008EE080AF0EE6A0AF0EE618A40EE4A0AF3
:1048200029EE890A08EE280A20EE0A0A01F044F867
:104830009FED1FBADFED1FBA20EE0B0AC0EE2B0A68
:1048400029EE880A08EEC90A20EE0A0AC6ED000A17
:10485000F0EEC00A10EE900AB0F17E5F07DB10EEBA
:10486000100A154961F31E0000EE100A01E000F085
:1048700087FF20EE0B0AC0EE2B0A28EE080A08EE8E
:10488000A80AC5ED000AF0EE6A0A40EE4A0A29EECF
:10489000A80A09EE080A20EE0A0A01F00DF820EE37
:1048A0000B0AC0EE2B0AC4ED000ABDEC088B70BDEC
:1048B00000003443DA0F4940DA0FC93F2DE9F047D1
:1048C000DFF8088104460E464FF00009D8F80000D2
:1048D000C043800709D03D4D283D286820F0806006
:1048E0002860FDF713FF074607E00120BDE8F087C9
:1048F000FDF70CFFC01B022860D828680001F7D420
:10490000D8F80010226821F47C3141EA0231C8F85D
:104910000010207A4FF4FE02A1884002491EA0F543
:10492000007080B2C1F308010843A189491E02EA60
:1049300001410843217C1202491E02EA0161084339
:104940002249103108602148001D0168626921F088
:10495000C001114301600168A26921F020011143E7
:104960000160016821F010010160184914310A68E2
:104970004FF6F8739A43E36942EAC3020A6001689A
:1049800041F0100101606EB10168012E0ED041F4BA
:1049900000110160286840F080602860FDF7B6FED5
:1049A00004460DE0016841F40021F2E741F4801172
:1049B000EFE7FDF7ABFE001B022801D9032095E7C6
:1049C00028680001F5D5484690E7000028440258C1
:1049D0002DE9F047DFF8088104460E464FF0000944
:1049E000D8F80000C043800709D03D4D283D286815
:1049F00020F080502860FDF789FE074607E001207F
:104A0000BDE8F087FDF782FEC01B022860D8286849
:104A10008000F7D4D8F80010228821F07C7141EA98
:104A20000251C8F80010207A4FF4FE02A18840021B
:104A3000491EA0F5007080B2C1F308010843A189A6
:104A4000491E02EA01410843217C1202491E02EA82
:104A5000016108432249183108602148001D01689E
:104A6000626921F44061114301600168A26921F487
:104A7000007111430160016821F4807101601849DF
:104A80001C310A684FF6F8739A43E36942EAC3029D
:104A90000A60016841F4807101606EB10168012E05
:104AA0000ED041F080710160286840F0805028608D
:104AB000FDF72CFE04460DE0016841F48001F2E7A9
:104AC00041F40001EFE7FDF721FE001B022801D9A8
:104AD000032095E728688000F5D5484690E7000058
:104AE0002844025870B541889FED1D1B4489C1F3CD
:104AF0000A028188C4F30A05C489C1F30A03018943
:104B000000EE103A008AC4F30A04C1F30A01B8EEB9
:104B1000403BB0EE080BC0F30A061348B0EE402B42
:104B200013EE012BB7EEC22B80ED002A02EE101A15
:104B3000B8EE423BB0EE402B13EE012BB7EEC22B8A
:104B400080ED012A02EE102AB8EE422B12EE010B84
:104B5000B7EEC00B80ED020A8581C681048270BD6C
:104B6000FCA9F1D24D62603F9402002400F06EB9BE
:104B700012480722104901604FF480014160002172
:104B8000C0E902124FF000720261521042619201BC
:104B900013118361C0E90721C0E90D214162C1639E
:104BA0008162C162016441648164C16401654165DF
:104BB0008165FFF7B3B80000003800409C01002475
:104BC00010B502685169936943F008039361026864
:104BD000936943F0100393610268136823F00103A3
:104BE00013600268136940F26F34A34313610268D3
:104BF000936823F44043936090F88120042A0CD0FA
:104C00008A060AD5D0F8842042F08002C0F88420B9
:104C10000268936943F02003936190F88120032A8E
:104C20000CD04A060AD5D0F8842042F00402C0F81D
:104C300084200268936943F0400393618A050AD592
:104C4000D0F8842042F00102C0F884200268936901
:104C500043F400739361C9050AD5D0F8841041F07C
:104C60000801C0F8841001688A6942F480728A6180
:104C70000021A0F86210A0F86A1010BD2DE9F041E3
:104C80001E4617460D468046069C08E0FDF73EFD91
:104C9000801BA04202D3601C01D00CE05CB1D8F8AC
:104CA0000000406935EA000007D00020B842EDD08E
:104CB0000020BDE8F0810320FBE70120F6E7704704
:104CC000FDF72ABD30B59DB04C216846FBF764FB6B
:104CD000202113A8FBF760FB0220FDF7FDFD19481A
:104CE0000024016821F440410160016801F4404161
:104CF0001B9101688904FCD5402502200090012108
:104D0000CDE90904CDE9031532210420CDE90B01D9
:104D1000CDE910040D900E900F9068461294FEF7A6
:104D200099FD1B2013900320CDE9140428011A9546
:104D30000421CDE91645CDE9185013A8FEF774FB00
:104D40001DB030BD18480258274810B5016841F41D
:104D500070010160254A106800F00F00072804D296
:104D6000106820F00F00C01D10602149086840F055
:104D7000010008601E4B0020103318600B681D4CAA
:104D800023400B60136803F00F03072B04D913684B
:104D900023F00F03DB1D1360154A18321060121D3B
:104DA0001060121D1060124B134A28331A601B1D2D
:104DB000124A1A601B1D124A1A601B1D18601B1D27
:104DC0001A601B1D18601B1D1A601A1D10600A68EE
:104DD00022F480220A6006496031086043F2D20062
:104DE0000849086010BD000088ED00E00020005276
:104DF000004402587FEDF6EA000202020000FF01C3
:104E000080020101004000520148FFF7BCB90000D8
:104E10000401002401490968086470475001002416
:104E2000084810B5DFED080A90ED080AF438FFF7DE
:104E300096FC00B2002800DA0020BDE8104080B2E5
:104E4000FFF7E8BF9C0300240AD7A33B70B51A4CB8
:104E50000026184820604FF4E130666260600C2044
:104E6000C4E9050626622046E6612661E660A66082
:104E7000FFF7ABFA04F19005104828607620C5E9E9
:104E800001064FF48060C5E9036080106E61C5E9DA
:104E900006600002C5E908062846FCF765FB0848DD
:104EA0008022E567AC6301682046BDE87040FFF7EB
:104EB0000FBB0000001C01400805002458040240FC
:104EC0004800002490F82810C90706D001684A68F5
:104ED000C36A22F400321A434A6090F82810890706
:104EE00006D501684A68036B22F480321A434A608F
:104EF00090F82810490706D501684A68436B22F4E8
:104F000080221A434A6090F82810090706D50168E4
:104F10004A68836B22F400421A434A6090F82810D2
:104F2000C90606D501688A68C36B22F480521A4309
:104F30008A6090F82810890606D501688A68036C93
:104F400022F400521A438A6090F82810490611D5BD
:104F500001684A68436C22F480121A434A60416C2B
:104F6000B1F5801F06D101684A68836C22F4C00243
:104F70001A434A6090F82810090606D501684A6865
:104F8000C06C22F4002202434A607047F8B5002545
:104F90000446C0F88C50FDF7B9FB0746206800684E
:104FA0006FF07E46000708D500223B464FF4001103
:104FB0002046009600F01EFB60B92068006840079C
:104FC0000AD500223B464FF480012046009600F0AF
:104FD00011FB08B10320F8BD2020C4F88400C4F8F8
:104FE0008800E566002084F88050F8BD70B5846BB9
:104FF000D4F88400D4F88850216889684FF00006FE
:10500000090606D5212804D1A4F85660204600F0F0
:105010008FF820688068400606D5222D04D1A4F8B8
:105020005E60204600F05AF8D4F88C0040F0100082
:10503000C4F88C002046FFF7C7F970BD014610B5D3
:10504000806BC969B1F5807F2ED00021A0F85E1079
:10505000016851E8002F22F4807241E80023002B00
:10506000F6D10168083151E8002F22F0010241E831
:105070000023002BF5D10168083151E8002F22F000
:10508000400241E80023002BF5D12021C0F8881010
:10509000C16E012908D1016851E8002F22F01002E9
:1050A00041E80023002BF6D1C16E012902D0FFF7A1
:1050B00039FA10BDB0F85C10FFF73DF910BD10B51E
:1050C000806BC16E012902D0FFF72DFA10BDB0F838
:1050D0005C104908FFF72FF910BD000010B50168FA
:1050E00051E8002F22F4907241E80023002BF6D102
:1050F0000E4B0168083151E8002F1A4041E80024A6
:10510000002CF6D1C16E012908D1016851E8002FA9
:1051100022F0100241E80023002BF6D12021C0F834
:1051200088100021C166016710BD0000FEFFFFEF7F
:10513000016851E8002F22F0C00241E80023002B53
:10514000F6D10168083151E8002F22F4000241E84D
:105150000023002BF5D12021C0F8841070470000F7
:105160002DE9F043044600680025DFF89C8387B0F2
:105170002269A168E369114362691A431143026815
:10518000E24B1A400A43026020684168E26821F459
:105190004051114341602168A069414501D0226A14
:1051A00010438A68DA4B1A4002438A602068C16A59
:1051B000626A21F00F011143C162D64A2068D649C4
:1051C00090420ED1096801F0380118296FD07ADCBD
:1051D000B9B308296CD010296BD18BE0282968D18C
:1051E0008EE0CE4A904209D1096801F007010629F4
:1051F0005FD2DFE801F0507D7F818385C84A90420D
:1052000009D1096801F0070106297BD2DFE801F026
:10521000437072747678C34A904209D1096801F0EC
:10522000070106296ED2DFE801F036636567696B16
:10523000BD4A90420BD1096801F00701062961D2ED
:1052400000E043E0DFE801F0275456585A5CB74AC3
:10525000904206D1096801F0380118294CD0B7DD19
:1052600031E0B34A904209D1096801F007010629EB
:1052700048D2DFE801F0103D3F414345AD4A90423E
:105280000BD1096801F0070106293BD2DFE801F0E4
:10529000033032343638002135E0A74A904209D134
:1052A000096801F03801182926D091DD0BE023E0D0
:1052B0001EE027E0A14A90420AD1096801F03801B6
:1052C000182919D084DD202988D11CE001211AE099
:1052D000404517D19049091D096801F007010629C9
:1052E00010D2DFE801F0030507090B0D02210AE0E7
:1052F000042108E0082106E0102104E0202102E05A
:10530000402100E08021DFF838C2834A4FF4004793
:105310008C4E4FF00009543A40454FEA2C1353D1BC
:1053200010291CD006DC022909D004290BD0082939
:1053300072D10EE0202943D040296DD142E0FDF723
:10534000F3FA844613E06846FDF700FBDDF804C07D
:105350000DE003A8FDF798FBDDF810C007E010682A
:10536000800607D51068C0F3C1002CFA00FCBCF120
:10537000000F24D0606A36F810206668BCFBF2F09B
:1053800006EB4601814247D8B0EB063F44D80023E4
:105390004F4660461946FAF7B5FF0902020241EA94
:1053A000106170081018324679410023FAF7AAFFFD
:1053B000654AA0F5407191422ED82168C86090E0FE
:1053C0009C46D7E7BC46D5E7E0694FF6EF78B84290
:1053D0004AD108291AD005DC59B101290CD0042979
:1053E0007ED10DE0102918D0202939D0402977D15D
:1053F00038E0FEF773F901E0FEF782F9844614E025
:105400006846FDF7A3FADDF804C00EE003A8FDF737
:105410003BFBDDF810C008E062E01068800607D5AD
:105420001068C0F3C1002CFA00FCBCF1000F58D08A
:10543000606A36F81000BCFBF0F04100606801EBD8
:105440005001B1FBF0F0A0F11001414548D84FF6F2
:10545000F0710140C0F3420001432068C16040E0A8
:105460009C46E5E7BC46E3E708291AD005DC59B1BC
:1054700001290CD0042933D10DE0102917D020299F
:105480003CD040292CD13BE0FEF728F901E0FEF7A3
:1054900037F9844613E06846FDF758FADDF804C092
:1054A0000DE003A8FDF7F0FADDF810C007E0106882
:1054B000800607D51068C0F3C1002CFA00FCBCF1CF
:1054C000000F0ED0606A36F81000BCFBF0F1606887
:1054D00001EB5001B1FBF0F0A0F11002424511D9EF
:1054E00001250120A4F86A00A4F868002846C4F841
:1054F0007090C4F8749007B0BDE8F0839C46E1E773
:10550000BC46DFE780B258E7000C0058F369FFCFD4
:10551000FFF4FF11001001405444025800440040C1
:1055200000480040004C0040005000400014014082
:1055300000780040007C004000180140001C014041
:105540000090D003645F0008FFFC0F0070B5816518
:105550000025A0F85C200446C0F88C502220C4F836
:105560008800E06FE0B120491346C163E16F1F4836
:105570000864E16F1E48C864E06F0565A66D216888
:10558000E06F32462431FCF7C1F948B11020C4F86D
:105590008C0084F880502020C4F88800012070BD61
:1055A00084F88050206940B1206850E8001F41F421
:1055B000807140E80012002AF6D12068083050E8D7
:1055C000001F41F0010140E80012002AF5D12068D7
:1055D000083050E8001F41F0400140E80012002A66
:1055E000F5D1002070BD00003D500008BF500008FC
:1055F000ED4F00082DE9F0471F4690460E46044641
:10560000089D4FF0000A4FF0200949E0681C47D080
:10561000FDF77CF8C01BA8422AD84DB3206801686A
:1056200049073DD5C069C043000539D421684FF40E
:1056300000600862206850E8001F21F4D07140E843
:105640000012002AF6D12068083050E8001F21F02F
:10565000010140E80012002AF5D1C4F88490C4F892
:105660008890C4F88C90032084F880A0BDE8F0876F
:10567000206850E8001F21F4D07140E80012002A91
:10568000F6D12068083050E8001F21F0010140E801
:105690000012002AF5D1C4F88490C4F88890E2E79B
:1056A0002068C06936EA000004D000204045ADD033
:1056B0000020DBE70120F9E7134810B50068C16955
:1056C000C943C9061ED4102101620F48FEF734FEFB
:1056D0000E4C0F4800F180012268824202D1C4E9D9
:1056E000001002E0C4E900010846FFF7FBF960681A
:1056F0008021FAF751FE21688022BDE8104002485F
:10570000FEF7E6BE10BD0000080500244800002496
:1057100008040024FEE700000FB4054B10B503A9F0
:10572000044A029800F03EFA10BC5DF814FB000039
:10573000E15E0008500000244100080218BF042068
:105740000A0E18BF40F001004FF07F4232EA01011B
:1057500008BF40F00200012808BF05207047090774
:10576000090E002804DB00F1E02080F800147047E7
:1057700000F00F0000F1E02080F8141D70470000D9
:1057800010B54FF00E402DED028BB0EE408A18EEB2
:10579000104A00EB4400B0F1506F4AD84FF0FC4083
:1057A000B0EB440F22D2B0EEC80ADFED360A30EE7D
:1057B000C00ADFED350A60EE208A18EE900A00F08C
:1057C000A6FB01EE100A14F0004F1DBFDFED2F0AFB
:1057D0009FED2F0AB1EE411ADFED2E0A08BF9FEDB3
:1057E0002E0ADFED2E1A21EE218A05E0DFED2C0ACC
:1057F00068EE088AB0EE600A9FED2A1ADFED2A1AD9
:1058000030EE080A48EE811A9FED281A08EEA11A18
:10581000DFED271A48EE811A9FED261A08EEA11A2D
:1058200068EE281ABDEC028B01EE810A30EE200AE8
:1058300010BD4FF0E440B0EB440F0CD918EE100A45
:10584000FFF77AFF042808BF00F08EF9B0EE480A8F
:10585000BDEC028B10BD4FF07F40B0EB440F07D280
:10586000B0EE480ABDEC028BBDE8104000F06DB907
:10587000012000F091F9BDEC028BBDE8104000F072
:105880006BB900000000803F0000003F0000C9BF6E
:1058900022AAFDB90000C93F22AAFD39000000C0BC
:1058A0000000000024FE1C3DC78AD83C1E67383D1E
:1058B0001B93993DAFAA2A3E10EE100A10B510EEC8
:1058C000901A4FF0684202EB40032DED028BB3F1CA
:1058D000654F3CBF02EB4102B2F1654F7CD200BF85
:1058E000C0F3C753C1F3C7529A1A1B2A09DD10F03F
:1058F000004F14BF9FED6E0A9FED6E0ABDEC028B48
:1059000010BD12F11A0F1BDA11F0004F09D010F080
:10591000004F0CBF9FED680A9FED680ABDEC028B3B
:1059200010BD80EE208A18EE100AFFF705FF04284C
:1059300008BF00F019F9B0EE480ABDEC028B10BDAB
:105940004200B2EB410F37D910F0004F19BFDFED25
:105950005C1A9FED5C1ADFED5C1A9FED5C1AB0EEED
:10596000602A0A46F1EE400A80F00041B0EE420A99
:1059700010460A1A5200B2F1807F34D2484010F02B
:10598000004FDFED532A9FED533A1DBF9FED522A82
:1059900071EEE21A31EE431A9FED502A04BF71EE08
:1059A000A21A31EE031AF0EE402A42EE602A40EECF
:1059B000020A82EEA02A18E011F0004F04BF9FED0A
:1059C000481AF0EE411AD4D010F0004F1CBFDFEDA2
:1059D000451A9FED451A00E026E004BFDFED431AAB
:1059E0009FED431AC5E780EE202A22EE020ADFED82
:1059F000410ADFED412ABDEC028B40EE202ADFEDAB
:105A00003F0A40EE220ADFED3E2A40EE202ADFED7B
:105A10003D0A40EE220A22EE000A00EE201A31EE84
:105A2000020A30EE210A10BD4FF07F42B2EB400F68
:105A300028BFB2EB410F05D2BDEC028BBDE8104090
:105A400000F086B840EA01035B0008BF41F0FF4167
:105A50000BD0B2EB400F08BFB2EB410F08D120F0E2
:105A6000804000EE100A21F0804100EE901A37E7E6
:105A7000B2EB400F12BF5FEA410240F0FF4001F07D
:105A800000413FF42DAF4A0092EA40033FF528AFB2
:105A9000002AACBF9FED1C1A9FED1C1A20EE010AD4
:105AA00060EE810A10EE100A10EE901A18E700005E
:105AB000DB0FC9BFDB0FC93FDB0F4940DB0F49C01C
:105AC0000000C9BF22AAFDB90000C93F22AAFD39C2
:105AD0000060ED3EC30ACE37000000BF0000003F6B
