:020000040800F2
:1000000020350024A50300081F4A000855470008B2
:100010000D4A0008C1110008B55600080000000094
:10002000000000000000000000000000E1020008E5
:1000300081140008000000003D030008B9510008C9
:10004000BF030008BF030008BF030008BF03000888
:10005000BF030008BF030008BF030008BF03000878
:10006000BF030008BF030008BF030008BF03000868
:10007000BF030008BF030008BF030008BF03000858
:10008000BF030008BF030008BF030008E114000815
:10009000BF030008BF030008BF030008BF03000838
:1000A000BF030008BF030008BF030008BF03000828
:1000B000BF030008BF030008BF030008BF03000818
:1000C000BF030008BF030008BF030008BF03000808
:1000D000BF030008BF030008BF030008BF030008F8
:1000E000BF030008BF03000800000000BF030008B2
:1000F000BF030008BF030008BF030008BF030008D8
:10010000BF030008BF030008BF030008BF030008C7
:10011000BF030008BF030008BF030008BF030008B7
:10012000BF030008BF030008BF030008BF030008A7
:10013000BF030008BF030008BF030008BF03000897
:1001400000000000000000000000000000000000AF
:10015000BF030008BF030008BF030008BF03000877
:10016000BF030008BF030008BF030008BF03000867
:10017000BF030008BF030008BF0300080000000021
:10018000BF030008BF030008BF030008BF03000847
:10019000BF030008BF030008BF030008BF03000837
:1001A000BF030008BF030008BF03000800000000F1
:1001B000BF030008BF030008BF030008BF03000817
:1001C000BF030008BF03000800000000000000009B
:1001D0000000000000000000BF0300080000000055
:1001E000000000000000000000000000000000000F
:1001F0000000000000000000BF030008BF0300086B
:10020000BF030008BF03000800000000BF03000890
:10021000BF030008BF030008BF030008BF030008B6
:10022000BF03000800000000BF030008000000003A
:10023000BF030008BF03000800000000BF03000860
:10024000BF030008BF030008BF030008BF03000886
:10025000BF030008BF030008BF030008BF03000876
:10026000BF030008BF030008BF030008BF03000866
:10027000BF030008BF030008BF0300080000000020
:10028000BF030008BF030008BF030008BF03000846
:1002900000000000BF030008BF03000800000000CA
:1002A00000000000BF030008BF030008BF030008F0
:1002B00041560008BF030008BF030008BF03000841
:1002C000BF030008BF030008BF030008DFF80CD01D
:1002D00000F0BCFA004800474966000820350024B9
:1002E0002D4B19680868B0E8F04F80F30988BFF318
:1002F0006F8F4FF0000080F31188704700000000FE
:1003000008480068006880F308884FF0000080F318
:10031000148862B661B6BFF34F8FBFF36F8F00DFF3
:1003200000BF00BF08ED00E0DFF80C00016841F4F9
:1003300070010160704700BF88ED00E0EFF30980B5
:10034000BFF36F8F144B1A681EF0100F08BF20ED1B
:10035000108A20E9F04F106009B44FF0500072B6D7
:1003600080F31188BFF34F8FBFF36F8F62B607F032
:100370008BFB4FF0000080F3118809BC19680868F6
:10038000B0E8F04F1EF0100F08BFB0EC108A80F3F9
:100390000988BFF36F8F704764000024EFF3058076
:1003A000704700000648804706480047FEE7FEE722
:1003B000FEE7FEE7FEE7FEE7FEE7FEE7FEE7FEE715
:1003C00075520008CD0200082DE9F05F05460020B7
:1003D00092469B4688460646814640241BE02846B6
:1003E00041464746224600F069F853465A46C01A2D
:1003F000914110D311461846224600F050F82D1AAC
:1004000067EB01084F4622460120002100F047F823
:1004100017EB00094E41201EA4F10104DFDC484621
:1004200031462A464346BDE8F09F40EA01039B0758
:1004300003D009E008C9121F08C0042AFAD203E059
:1004400011F8013B00F8013B521EF9D27047D2B2BD
:1004500001E000F8012B491EFBD270470022F6E7AD
:1004600010B513460A4604461946FFF7F0FF20462A
:1004700010BD30B50B46014600202022012409E0C2
:1004800021FA02F59D4205D303FA02F5491B04FA4D
:1004900002F52844151EA2F10102F1DC30BD202A2C
:1004A00004DB203A00FA02F1002070479140C2F1CB
:1004B000200320FA03F3194390407047202A04DBFD
:1004C000203A21FA02F00021704721FA02F3D040CD
:1004D000C2F1200291400843194670472DE9FE4FB2
:1004E000804681EA0300C00F0C46009021F00041D5
:1004F00023F00045B8EB0200A94105D24046214651
:1005000090461C460B46024623F00040104347D05D
:10051000270DC7F30A00C3F30A510290401A019055
:1005200040286BDAC3F3130040F4801B0098924616
:1005300020B10023D2EB030A63EB0B0B0198594661
:10054000C0F140025046FFF7AAFF06460D4650464E
:100550005946019A00F08CF910EB08006141002423
:1005600087EA115284EAE7731A4340D0009A62B3D3
:10057000019A012A4FEA075215DC001B61EB0201C8
:100580004FF0004202EA0752CDE90042001C41F55B
:10059000801132462B4600F08CF903B0BDE8F08F95
:1005A00040462146F9E7001B61EB0201001C41F5C2
:1005B000801300185B412018A2F5001747EB0301D8
:1005C00040EAD570B6196D4111E06D084FEA360664
:1005D00045EAC0754FEA0752001B61EB0201001C9F
:1005E00041F5801149084FEA300000195141324667
:1005F0002B4603B0BDE8F04F00F04CB90098012243
:1006000040000023D0EB020263EBE0730098214628
:100610004FEAE074B8EB000061EB0401E9E783F016
:1006200000435BE781F0004158E72DE9FE4F81EA86
:10063000030404F0004421F0004100944FF0000B4B
:1006400023F0004350EA01045ED052EA03045BD079
:10065000C3F30A54C1F30A552C44A4F2F3340194B1
:10066000A0FB0254C1F3130141F48011C3F313033F
:1006700043F4801301FB024400FB034E840A970AF3
:1006800044EA815447EA8357A4FB076802958D0A20
:1006900005FB07854FEA932C04FB0C542705029DAC
:1006A0004FEA065847EA1637B5EB08056EEB070C1C
:1006B000870E920E47EA811742EA8312A7FB0201D6
:1006C000B6EB0B0164EB00042B0D43EA0C335E1810
:1006D00044EB1C50DA465146E7FB0201C5F3130414
:1006E0004FEA0B3343EA14534FEA0432019C43EAC6
:1006F0000603A4F10C040294009CCDE900B400F0C0
:10070000D8F803B0BDE8F08F00200146F9E72DE9E5
:10071000F04D81EA030404F0004B21F0004514463B
:100720004FF0000A23F0004150EA050220D054EABD
:1007300001021DD0C5F30A570246C5F31303C1F3E6
:100740001300C1F30A5640F4801543F48013A7EB5D
:100750000608101BD64608F2FD3873EB050002D3DD
:1007600008F1010801E092185B41B8F1000F03DACB
:1007700000200146BDE8F08D00204FF480110646B0
:1007800084460EE0171B73EB050705D3121B63EBC2
:10079000050306434CEA010C49084FEA3000921861
:1007A0005B4150EA0107EDD152EA030012D082EA20
:1007B000040083EA0501084305D0101BAB4106D2B3
:1007C0000122002306E000224FF0004302E06FF018
:1007D000010253101AEB06004CEB085110EB0A0013
:1007E00041EB0B01BDE8F04D00F054B8C1F30A52E3
:1007F000C1F3130140F2FF3341F480119A4202DA4F
:1008000000200146704740F233439A42A2F233423D
:1008100002DC5242FFF752BEFFF741BE30B5041E64
:1008200071F1000404DB4FF00044404264EB01012D
:10083000141E73F1000405DB1C464FF000435242C6
:1008400063EB0403994208BF904230BD064C074D4C
:1008500006E0E06840F0010394E807009847103490
:10086000AC42F6D3FFF736FD008800082088000868
:10087000202A06DBCB17203A41FA02F043EAE07364
:1008800006E041FA02F3D040C2F120029140084351
:100890001946704710B5141E73F1000408DA401CA5
:1008A00041F1000192185B411A4301D120F001008F
:1008B00010BD2DE9F04D92469B4611B1B1FA81F27F
:1008C00002E0B0FA80F220329046FFF7E8FD0446DD
:1008D0000F4640EA0A0041EA0B0153465A460843D4
:1008E00013D0114653EA010019D0C8F14002504616
:1008F000FFF7E4FD05460E46504659464246FFF7CF
:10090000CEFD084305D0012004E020463946BDE86D
:10091000F08D0020054346EAE0762C4337430A98E1
:100920006305E40AA0EB08000022FD0A44EA4754EC
:100930000A3002D500200146E9E701051019694196
:10094000DDE9084500196941BDE8F04DA2E7000066
:10095000B7EE001A80ED001A9FED141A80ED011A0F
:100960009FED121A80ED021A9FED101A80ED031A06
:100970009FED0E1A80ED041A9FED0C1A80ED051AFA
:100980009FED0A1A80ED061A80ED090AC0ED070AEC
:100990009FED061A80ED0A1A9FED041A80ED0B1ADE
:1009A0009FED021A80ED0C1A704700000000000055
:1009B00030B52DED108B87B004460D4694ED090A35
:1009C000F6EE000A20EE200A8DED060A95ED000AEB
:1009D0008DED050A95ED010A8DED040A95ED020AEB
:1009E0008DED030A03AA04A905A804F01AF894EDF2
:1009F000010AD4ED030A20EE200AD4ED000A94ED9A
:100A0000021A00EEC10AF0EE000A20EE200AB0EE53
:100A100040CA94ED000AD4ED010A20EE200AD4ED7C
:100A2000020A94ED031A00EE810AF0EE000A20EEAD
:100A3000200AF0EE40CA94ED000A20EE000AD4ED40
:100A4000010A94ED011A00EEC10AD4ED020A94EDF8
:100A5000021A00EEC10AD4ED030A94ED031A00EE67
:100A6000810AB0EE40DA9DED040A20EE0D0ADDEDBC
:100A7000030A00EEEC0AF0EE40DA9DED030A20EEE8
:100A80000C0ADDED050A00EECD0AB0EE40EA9DED60
:100A9000050A20EE2C0ADDED040A00EECC0AF0EE89
:100AA00040EA94ED0A0AD4ED070A0DEEA00A84ED9F
:100AB0000A0A94ED0B0AD4ED070A0EEE200A84ED23
:100AC0000B0A94ED0C0AD4ED070A0EEEA00A84ED91
:100AD0000C0A94ED0A0ADFED8C0AB4EEE00AF1EE9E
:100AE00010FA03DD9FED880A84ED0A0A94ED0A0AE4
:100AF000DFED860AB4EEE00AF1EE10FA03D29FEDC4
:100B0000830A84ED0A0A94ED0B0ADFED7F0AB4EE46
:100B1000E00AF1EE10FA03DD9FED7B0A84ED0B0A8B
:100B200094ED0B0ADFED790AB4EEE00AF1EE10FA6B
:100B300003D29FED760A84ED0B0A94ED0C0ADFEDEB
:100B4000720AB4EEE00AF1EE10FA03DD9FED6E0AD0
:100B500084ED0C0A94ED0C0ADFED6C0AB4EEE00AA9
:100B6000F1EE10FA03D29FED690A84ED0C0A95EDBF
:100B7000030AD4ED070A00EEAD0AD4ED0A0A70EEBE
:100B800020AA95ED040AD4ED070A00EE8E0AD4EDF2
:100B90000B0A30EE20BA95ED050AD4ED070A00EEF7
:100BA000AE0AD4ED0C0A70EE20BA94ED000AB0EE55
:100BB00040AA94ED010AF0EE408A94ED020AB0EEEC
:100BC000409A94ED030AF0EE409AB1EE680A20EEE6
:100BD0002A0A09EE4B0A09EEEB0AF6EE000A20EEAD
:100BE00020FA2AEE2A0A09EE2B0A09EECB0AF6EEC3
:100BF000000A60EE20FA2AEE0B0A08EEEB0A09EE74
:100C0000AA0AF6EE000A20EE200A8DED020A2AEE6C
:100C10002B0A08EE8B0A09EE6A0AF6EE000A20EEAD
:100C2000200A8DED010AD4ED090AB0EE4A0A0FEE52
:100C3000200AB0EE40AAD4ED090AB0EE680A0FEE21
:100C4000A00AF0EE408A94ED091A9DED020AF0EE3A
:100C5000490A40EE010AB0EE609A94ED091A9DED42
:100C6000010AF0EE690A40EE010AF0EE609A6AEEBF
:100C70000A0A48EEA80A49EE090A49EEA90AB0EEA6
:100C8000600A04F021FFB0EE408AB0EE480AB5EEEB
:100C9000C00AF1EE10FA04DDF7EE000A80EE880AD1
:100CA00001E0B7EE000AB0EE408A2AEE080A84EDB1
:100CB000000A28EE880A84ED010A29EE080A84ED6C
:100CC000020A29EE880A84ED030A95ED060A84EDEE
:100CD000080A94ED032AF0EE421A94ED022AB0EECF
:100CE000421A94ED012AF0EE420A94ED002AB0EE89
:100CF000420A04F11802111F081F03F025FF07B074
:100D0000BDEC108B30BD0000CDCCCC3DCDCCCCBDEE
:100D100010B501221146024801F0B0FC10BD0000E0
:100D20000008025810B500220121024801F0A6FC7B
:100D300010BD00000008025800B587B0142102A8B9
:100D4000FFF78CFB00BF3048006840F080002E4960
:100D500008600846006800F08000019000BF00BFF6
:100D600000BF0846006840F00400086008460068BC
:100D700000F00400019000BF00BF00BF08460068FB
:100D800040F0100008600846006800F01000019074
:100D900000BF00BF00BF0846006840F002000860C6
:100DA0000846006800F00200019000BF00BF00BFCD
:100DB0000846006840F0010008600846006800F03E
:100DC0000100019000BF00BF012209210F4801F07E
:100DD00055FC09200290012003900020049003207C
:100DE000059002A9094801F051FB4FF4A050029070
:100DF0004FF4881003900020049002A9044801F0E9
:100E000045FB07B000BD0000E0440258000802584E
:100E10000010025810B501220821024801F02EFCF2
:100E200010BD00000008025810B500220821024839
:100E300001F024FC10BD00000008025810B5B7EE08
:100E4000001ADFED1D0A9FED1D0A1D4803F010FD7D
:100E5000B7EE001ADFED180A9FED180A1848243083
:100E600003F006FDB7EE001ADFED160A9FED130A38
:100E70001348483003F0FCFCB7EE001ADFED120A0D
:100E80009FED120A0E486C3003F0F2FCB7EE001A28
:100E9000DFED0D0A9FED0D0A0948903003F0E8FCE4
:100EA000B7EE001ADFED0A0A9FED080A0448B430D5
:100EB00003F0DEFC10BD0000CDCCCC3D6F12833AB8
:100EC000F40200246F12033BCDCC4C3D17B7D13850
:100ED0000AD7A33D07E0044800F07EF8024803F07B
:100EE0003BFC04F03DFAF6E76C02002400B587B045
:100EF000684600F067F91C2269460A48FFF795FA30
:100F00004FF47A70074988611E2048619FED061AE8
:100F1000F6EE000AB0EE080A084603F079FD07B0C5
:100F200000BD0000D80200240AD7233C10B504F00D
:100F30007DF810BD10B5044603E04FF47A7000F060
:100F400006F8201EA4F101018CB2F6D110BD70B5D7
:100F5000034600BF00BF0020002200BF4FF0E02684
:100F60007569C3EB031674014FF0E026B16910E018
:100F70004FF0E026B06988420BD0884202D20E1AA8
:100F8000324402E02E1A0E4432440146A24200D3FB
:100F900000E0EDE700BF70BD10B50024FFF7CCFE08
:100FA000FFF7C4FFFFF7A2FFFFF748FFDFED070AD7
:100FB0009FED070A0748FFF7CBFC05F029FA044329
:100FC00005F0BAFA0443204610BD0000CDCCCC3D5C
:100FD0000AD7A33B880200247CB505460020009078
:100FE0000190FFF79FFE922000F0D0F8062269469C
:100FF000122000F0ABF8FFF78BFE9DF80100000215
:1010000000B29DF8001040EA010400EE104AB8EE6C
:10101000C00A4C48D0ED000A20EE200A85ED000AF7
:101020009DF80300000200B29DF8021040EA01049E
:1010300000EE104AB8EEC00A4248D0ED000A20EE99
:10104000200A85ED010A9DF80500000200B29DF816
:10105000041040EA010400EE104AB8EEC00A394814
:10106000D0ED000A20EE200A85ED020AFFF7DCFE33
:1010700008226946002000F069F8FFF7CBFE9DF8D2
:1010800000000F2838D19DF80300000200B29DF83F
:10109000021040EA010400EE104AB8EEC00A2A48E5
:1010A000D0ED000A20EE200A85ED030A9DF8050028
:1010B000000200B29DF8041040EA010400EE104A5C
:1010C000B8EEC00A2048D0ED000A20EE200A85EDD7
:1010D000040A9DF80700000200B29DF8061040EADD
:1010E000010400EE104AB8EEC00A1748D0ED000A1D
:1010F00020EE200A85ED050AFFF714FEA22000F07D
:1011000045F802226946222000F020F8FFF700FE91
:101110009DF80000C0009DF8011040EA6114B4F58C
:10112000806F02DBA4F5006004B200EE104AF8EE16
:10113000C00AB4EE001AB3EE070A00EE810A85ED8C
:10114000060A7CBD200000242400002470B5064659
:101150000C46154646F0800000F018F806E05520D1
:1011600000F014F82070641C681EC5B2002DF6D182
:1011700070BD70B504460D4644F0800000F006F8DE
:10118000552000F003F8287070BD000001B582B052
:101190004FF47A70012301AA02A90090024803F0DB
:1011A0009FF89DF804000EBDD001002470B50546DF
:1011B0000C462846FFF7EAFF2046FFF7E7FF70BD21
:1011C00000BFFEE710B588B004469FED0F0A8DED15
:1011D000010A9FED0D0A8DED020A9FED0B0A8DEDC0
:1011E000030A9FED090A8DED050A9FED070A8DEDB3
:1011F000040A0020069007901C2201A92046FFF750
:1012000014F908B010BD000000000000F0B5856DB5
:10121000846D984F0668BE4270D0964F18370668A6
:10122000BE426BD0934F30370668BE4266D0914FB6
:1012300048370668BE4261D08E4F60370668BE42AE
:101240005CD08C4F78370668BE4257D0894F9037B4
:101250000668BE4252D0874FA8370668BE424DD0BE
:10126000854F0668BE4249D0834F18370668BE4294
:1012700044D0814F30370668BE423FD07E4F48375A
:101280000668BE423AD07C4F60370668BE4235D011
:10129000794F78370668BE4230D0774F903706686E
:1012A000BE422BD0744FA8370668BE4226D0734F7B
:1012B0000668BE4222D0714F14370668BE421DD068
:1012C0006E4F28370668BE4218D06C4F3C37066810
:1012D000BE4213D0694F50370668BE420ED0674FEA
:1012E00064370668BE4209D0644F78370668BE424C
:1012F00004D0624F8C370668BE4201D1012600E05F
:1013000000263EB1D0E919767E60C66E16B1D0E9EE
:101310001C767E60574F0668BE4249D0554F18373D
:101320000668BE4244D0534F30370668BE423FD0B5
:10133000504F48370668BE423AD04E4F6037066875
:10134000BE4235D04B4F78370668BE4230D0494F49
:1013500090370668BE422BD0464FA8370668BE427B
:1013600026D0454F0668BE4222D0434F1837066844
:10137000BE421DD0404F30370668BE4218D03E4FA7
:1013800048370668BE4213D03B4F60370668BE42FE
:101390000ED0394F78370668BE4209D0364F9037A5
:1013A0000668BE4204D0344FA8370668BE4201D159
:1013B000012600E00026DEB190F85C6006F01F0711
:1013C0003F26BE40AE600668366826F48026076871
:1013D0003E60066873608668402E04D10668B2607D
:1013E0000668F16044E00668B1600668F2603FE0BC
:1013F000224F0668BE4222D0204F14370668BE42F4
:101400001DD01E4F28370668BE4218D01B4F3C37F0
:101410000668BE4213D0194F50370668BE420ED040
:10142000164F64370668BE4209D0144F78370668F5
:10143000BE4204D0114F8C370668BE4201D101264E
:1014400000E00026A6B190F85C6006F01F070126B8
:10145000BE406660066873608668402E04D10668E8
:10146000B2600668F16003E00668B1600668F26089
:10147000F0BD000010000240100402400854025861
:101480007047000070B502F04DF94FF47A71B0FB6F
:10149000F1F4601EB0F1807F00D31BE0601E4FF0BE
:1014A000E021486148170F21002804DB0A07130ECA
:1014B000094A135406E00A07150E084A00F00F0304
:1014C0001B1FD55400BF00204FF0E021886107208A
:1014D000086100BF70BD000000E400E018ED00E00E
:1014E00010B5024800F07EFD10BD0000E4000024AD
:1014F0001CB5FFF751FD0548052100238022CDE9E9
:10150000001003A1054806F0BFFD1CBD0800002423
:10151000424D493038385F5461736B00D50E000876
:101520002DE9F041044601F0AFF8804614B90120DE
:10153000BDE8F08194F83500022808D0802060656D
:1015400000BF002084F8340000BF0120F0E7FE490E
:101550002068884249D0FC4918312068884244D02C
:10156000F9493031206888423FD0F7494831206836
:1015700088423AD0F44960312068884235D0F24937
:1015800078312068884230D0EF4990312068884215
:101590002BD0ED49A8312068884226D0EB4920683D
:1015A000884222D0E9491831206888421DD0E74995
:1015B00030312068884218D0E44948312068884298
:1015C00013D0E2496031206888420ED0DF4978317B
:1015D0002068884209D0DD4990312068884204D0D3
:1015E000DA49A8312068884201D1012000E00020BA
:1015F00068B12068006820F01E002168086020683B
:10160000406920F0800021684861256806E0206874
:10161000006820F00E00216808602568CA4920682B
:10162000884270D0C8491831206888426BD0C649BA
:1016300030312068884266D0C349483120688842EA
:1016400061D0C1496031206888425CD0BE497831A0
:101650002068884257D0BC4990312068884252D0D7
:10166000B949A831206888424DD0B84920688842DD
:1016700049D0B64918312068884244D0B349303146
:10168000206888423FD0B1494831206888423AD02A
:10169000AE4960312068884235D0AC497831206845
:1016A000884230D0A9499031206888422BD0A74980
:1016B000A8312068884226D0A5492068884222D0D7
:1016C000A3491431206888421DD0A14928312068DF
:1016D000884218D09E493C312068884213D09C49EA
:1016E0005031206888420ED0994964312068884280
:1016F00009D0974978312068884204D094498C31C8
:101700002068884201D1012000E0002028B1206E2D
:10171000006820F48070216E08608B492068884240
:1017200049D0894918312068884244D086493031EF
:10173000206888423FD084494831206888423AD0A6
:10174000814960312068884235D07F4978312068EE
:10175000884230D07C499031206888422BD07A4929
:10176000A8312068884226D078492068884222D053
:1017700076491831206888421DD07449303120687C
:10178000884218D0714948312068884213D06F4987
:101790006031206888420ED06C49783120688842D8
:1017A00009D06A4990312068884204D06749A8313D
:1017B0002068884206D12068006820F00100216876
:1017C000086005E02068006820F0010021680860DA
:1017D00011E000F059FFA0EB080005280BD92020EC
:1017E0006065032084F8350000BF002084F83400D1
:1017F00000BF01209CE6286800F001000028E8D125
:1018000051492068884249D04F49183120688842A0
:1018100044D04D493031206888423FD04A49483150
:10182000206888423AD0484960312068884235D0E3
:10183000454978312068884230D04349903120684A
:1018400088422BD04049A8312068884226D03F49A1
:101850002068884222D03D491831206888421DD036
:101860003A4930312068884218D0384948312068D8
:10187000884213D035496031206888420ED0334900
:1018800078312068884209D03049903120688842F8
:1018900004D02E49A8312068884201D1012000E0FF
:1018A000002040B1A66D94F85C0000F01F013F20BD
:1018B0008840B06007E0A76D94F85C0000F01F015D
:1018C00001208840786020492068884276D01E49EF
:1018D00018312068884271D01B4930312068884215
:1018E0006CD0194948312068884267D01649603168
:1018F0002068884262D014497831206888425DD0DF
:10190000114990312068884258D00F49A831206889
:10191000884253D00D49206888424FD00B49183176
:10192000206888424AD0094930312068884245D031
:10193000064948312068884240D004496031206817
:1019400088423BD0014905E01000024010040240EB
:10195000085402587831206888422FD025492068E1
:1019600088422BD0234918312068884226D022494A
:101970002068884222D020491431206888421DD036
:101980001D4928312068884218D01B493C31206805
:10199000884213D018495031206888420ED0164929
:1019A00064312068884209D0134978312068884220
:1019B00004D011498C312068884201D1012000E017
:1019C000002068B1D4E919104860E06E40B1E06EC3
:1019D000006820F48070E16E0860D4E91C10486053
:1019E000012084F8350000BF002084F8340000BFD7
:1019F00000BF9DE5A0040240085402580146486D0E
:101A0000704700002DE9F04104460D4616461F467A
:101A10004FF0000814B90120BDE8F08100BF94F830
:101A20003400012801D10220F6E7012084F83400B7
:101A300000BF94F8350001287ED1022084F83500DB
:101A400000206065E4492068884249D0E2491831A5
:101A50002068884244D0E0493031206888423FD035
:101A6000DD494831206888423AD0DB49603120683E
:101A7000884235D0D84978312068884230D0D6495C
:101A80009031206888422BD0D349A8312068884201
:101A900026D0D2492068884222D0D0491831206807
:101AA00088421DD0CD4930312068884218D0CB49BA
:101AB00048312068884213D0C84960312068884284
:101AC0000ED0C64978312068884209D0C349903188
:101AD0002068884204D0C149A8312068884206D1D4
:101AE0002068006820F001002168086005E0206897
:101AF000006820F00100216808603B463246294614
:101B00002046FFF783FBB449206888424BD0B24996
:101B100018312068884246D0AF4930312068884269
:101B200041D0AD494831206888423CD0AA49603153
:101B30002068884237D000E042E1A7497831206828
:101B4000884230D0A4499031206888422BD0A249E5
:101B5000A8312068884226D0A0492068884222D037
:101B60009E491831206888421DD09C493031206838
:101B7000884218D0994948312068884213D0974943
:101B80006031206888420ED09449783120688842BC
:101B900009D0924990312068884204D08F49A831F9
:101BA0002068884201D1012000E0002080B1206837
:101BB000006820F01E0040F0160021680860206CCC
:101BC000B0B12068006840F00800216808600FE0AC
:101BD0002068006820F00E0040F00A0021680860CC
:101BE000206C28B12068006840F00400216808607B
:101BF00079492068884270D0774918312068884236
:101C00006BD0754930312068884266D072494831BE
:101C10002068884261D070496031206888425CD079
:101C20006D4978312068884257D06B4990312068DF
:101C3000884252D06849A831206888424DD067490F
:101C40002068884249D0654918312068884244D0CC
:101C500062493031206888423FD06049483120686D
:101C600088423AD05D4960312068884235D05B496E
:101C700078312068884230D05849903120688842B5
:101C80002BD05649A8312068884226D05449206874
:101C9000884222D052491431206888421DD05049D0
:101CA00028312068884218D04D493C31206888424C
:101CB00013D04B495031206888420ED048496431D6
:101CC0002068884209D0464978312068884204D08B
:101CD00043498C312068884201D1012000E0002076
:101CE00090B1206E006800F4803028B1206E00684A
:101CF00040F48070216E0860E06E28B1E06E0068EC
:101D000040F48070E16E086033492068884249D011
:101D1000314918312068884244D02F493031206839
:101D200088423FD02C494831206888423AD02A491D
:101D300060312068884235D0274978312068884250
:101D400030D025499031206888422BD02249A831D3
:101D50002068884226D021492068884222D01F4925
:101D60001831206888421DD01C49303120688842D3
:101D700018D01A4948312068884213D01749603179
:101D8000206888420ED0154978312068884209D0F1
:101D9000124990312068884204D01049A831206847
:101DA000884206D12068006840F001002168086080
:101DB00010E02068006840F001002168086009E038
:101DC0004FF40060606500BF002084F8340000BF5D
:101DD0004FF0010840461FE6100002401004024088
:101DE0000854025870477047704700002DE9F043CF
:101DF00004460D469C46002394F89880B8F1020FE3
:101E000074D1402D38D12068D0F8A00000F4FE0035
:101E100040B9D4F89C0040F02000C4F89C00012098
:101E2000BDE8F0832068D0F8A40000F07F0038B946
:101E3000D4F89C0040F48070C4F89C000120EFE7C7
:101E40002068D0F8A400C0F3006040B12068D0F84A
:101E5000A0004FF00049B9EBD07F00D101232068EA
:101E6000D0F8A400C0F305200344606C5843D4F8B4
:101E7000749009EB80014BE0412D38D12068D0F8F7
:101E8000B00000F4FE0038B9D4F89C0040F0200007
:101E9000C4F89C000120C3E72068D0F8B40000F02B
:101EA0007F0038B9D4F89C0040F48070C4F89C00DE
:101EB0000120B5E72068D0F8B400C0F3006040B15D
:101EC0002068D0F8B0004FF00049B9EBD07F00D1C6
:101ED00001232068D0F8B400C0F305200344E06C6F
:101EE0005843D4F8789009EB800111E06EE0206D42
:101EF000A84207D8D4F89C0040F02000C4F89C0009
:101F000001208DE7606D6843D4F87C9009EB800177
:101F1000086800F080405060506820B90868C0F33D
:101F20008A40106003E0086820F060401060086894
:101F300000F000509060086800F000401061091D3A
:101F4000088880B2D061086800F47020D06008680A
:101F500000F480105061086800F400109061086877
:101F6000C0F3066010620868C00F5062091D0F467A
:101F7000002603E0B85D0CF80600761CDFF85C90E4
:101F8000D06809EB10400078B042F3D8402D03D15F
:101F90002068C0F8A83017E0412D03D12068C0F8B0
:101FA000B83011E0202D06D20120A840D4F80090CE
:101FB000C9F8980008E005F01F09012000FA09F0AF
:101FC000D4F80090C9F89C00002029E7D4F89C00C0
:101FD00040F00800C4F89C00012021E7A487000815
:101FE000704700002DE9F04F8DB00446EF480068BF
:101FF0008707EE48001D006807EA80772068006DBB
:1020000000F470482068406D00EA08082068006D00
:1020100000F00F092068406D00EA09092068006D92
:1020200000F0F00A2068406D00EA0A0A2068006D9E
:1020300000F0715B2068406D00EA0B0B2068006DBA
:1020400000F060700C902068406D0C9908400C9076
:102050002068456D2068066DC5F3002070B1C6F399
:10206000002058B100BF4FF480702168086500203F
:10207000CE49086000BF2046FFF7B2FFC5F38020BD
:10208000C8B1C6F38020B0B12068D0F8DC000A9057
:102090002068D0F8E4000A9908400A9000BF4FF485
:1020A0008060216808650020C049086000BF2046A4
:1020B0000A9900F0E6F967B100BFBD4838402168D1
:1020C0000865B80FB949086000BF39462046FFF7D8
:1020D00089FEB8F1000F0ED000BFB54808EA000035
:1020E000216808654FEA9870B049086000BF414612
:1020F000204600F0C8F9B9F1000F0ED000BFAC487F
:1021000009EA0000216808654FEA9970A74908604C
:1021100000BF4946204600F051F9BAF1000F0ED039
:1021200000BFA3480AEA0000216808654FEA9A70D8
:102130009E49086000BF5146204600F09BF9C5F358
:10214000C02070B1C6F3C02058B100BF4FF400608A
:102150002168086500209549086000BF204600F00E
:1021600093F9C5F34020C8B1C6F34020B0B1206850
:10217000D0F8D8000B902068D0F8E0000B99084008
:102180000B9000BF4FF4007021680865002087495C
:10219000086000BF20460B9900F074F9C5F3C040F9
:1021A00070B1C6F3C04058B100BF4FF400202168A1
:1021B000086500207D49086000BF204600F0FCF85B
:1021C000C5F3004070B1C6F3004058B100BF4FF4F2
:1021D00080302168086500207449086000BF2046EF
:1021E00000F04EF9C5F3804070B1C6F3804058B19D
:1021F00000BF4FF480202168086500206B4908600B
:1022000000BF204600F03BF9C5F3404088B1C6F35B
:10221000404070B100BF4FF40030216808650020D5
:102220006249086000BFD4F89C0040F08000C4F808
:102230009C000C9870B100BF5D490C980840216863
:1022400008650C98800F5949086000BF20460C991A
:10225000FFF7CAFDBBF1000F10D000BF54480BEAD6
:102260000000216808654FEA9B705049086000BF74
:10227000D4F89C0040EA0B00C4F89C004D4920684B
:1022800088427DD16068806800F00300002877D024
:102290006068006A00F00F0009906068406A099960
:1022A000084009906068006A00F03000089060689B
:1022B000406A0899084008906068006A00F4C0709D
:1022C00007906068406A0799084007906068006A54
:1022D00000F4FC4006906068406A06990840069049
:1022E0006068006A00F4F02005906068406A059913
:1022F000084005906068406A02906068006A01903A
:10230000099830B10998616808622046099900F07F
:10231000B3F8089830B108986168086220460899B7
:1023200000F0ACF80298C0F38010A0B10198C0F39F
:10233000801080B16068C06B000C04906068C06B56
:1023400000F03F0003904020616808622046DDE90C
:10235000032100F092F8079830B10798616808628D
:102360002046079900F087F8069840B10698616802
:102370000862D4F89C0006990843C4F89C0000E069
:102380000AE0059840B1059861680862D4F89C009D
:1023900005990843C4F89C00D4F89C0010B120466D
:1023A000FFF721FD0DB0BDE8F08F000010A8004040
:1023B000FFFFCF3F00A000407047000030B58DB058
:1023C00004460D460BAB01AA40212248FFF70EFD43
:1023D0000198A0F2012030B1012808D002280AD0CB
:1023E000032810D10BE01C481C4908600BE01C4876
:1023F0001A49086007E01B481849086003E01A48BA
:102400001649086000BF00BF9DF82D009DF82C10F4
:1024100040EA012000EE100AB8EEC00ADFED130A10
:1024200020EE200ADFED120A80EE201ABDEEC10A6E
:1024300010EE100A00B20949096808809DF82F00C3
:102440009DF82E1040EA012000B204490968488036
:102450000DB030BDE4000024100000240C00002466
:1024600014000024180000241C0000240000B443C1
:1024700000F8FF45704770477047704770477047D6
:10248000704770477047704770470000F8B50246C4
:102490000B4600216D4DD2E001278F401E6806EAF1
:1024A0000704002C72D01E7906F00306012E04D01A
:1024B0001E7906F00306022E13D190684F00032602
:1024C000BE40B0434F00DE68BE403043906050686D
:1024D00001268E40B0431E79C6F300168E4030436D
:1024E00050601E7906F00306032E09D0D0684F0015
:1024F0000326BE40B0434F009E68BE403043D060CC
:102500001E7906F00306022E13D1CF0802F1200631
:1025100056F827004E07F70E0F26BE40B0434F0770
:10252000FF0E1E69BE403043CF0802F1200646F878
:10253000270010684F000326BE40B0431E7906F006
:1025400003064F00BE40304310605E6806F440361C
:10255000002E73D000BF3E4E366846F002063C4F58
:102560003E603E46366806F00206009600BF00BF99
:10257000384E8F0856F827008E07370F0F26BE40BB
:10258000B043354EB24202D1002629E056E0334E28
:10259000B24201D1012623E0314EB24201D10226DE
:1025A0001EE0304EB24201D1032619E02E4EB24257
:1025B00001D1042614E02D4EB24201D105260FE0D0
:1025C0002B4EB24201D106260AE02A4EB24201D178
:1025D000072605E0284EB24201D1092600E00A266E
:1025E0008F073F0FBE4030431A4E8F0846F8270032
:1025F0004FF0B0463068A0435E6806F4801606B11E
:1026000020434FF0B04630607068A0435E6806F427
:10261000001606B120434FF0B04670606868A043D2
:102620005E6806F4003606B1204368602868A0435F
:102630005E6806F4803606B120432860491C1E6897
:10264000CE40002E7FF428AFF8BD00008000005877
:10265000F4440258080400580000025800040258CC
:1026600000080258000C02580010025800140258CA
:1026700000180258001C0258002402580AB1816157
:1026800001E00B0483617047014800687047000057
:1026900058000024034800680349097808440149A8
:1026A00008607047580000246000002410B5032023
:1026B00000F0FAF801F05CF810490968C1F3032151
:1026C0000F4A515C01F01F0120FA01F40B48006829
:1026D00000F00F001146085C00F01F0024FA00F023
:1026E00008490860084804600F2000F00FF808B19E
:1026F000012010BD00F09AF80020FAE718440258B3
:1027000094870008040000240000002470B50446EB
:102710001148007808B9012070BD0F4800784FF4C7
:102720007A71B1FBF0F00D490968B1FBF0F528466C
:1027300001F05BFF08B10120EEE7102C07D2002268
:102740002146501E00F073F80548046001E00120A6
:10275000E2E70020E0E70000600000240000002421
:102760005C0000244178154A11600178F9B1121D0E
:1027700041681160017B0907C27A41EA0261827AED
:1027800041EAC241427B41EA8241827B41EA4241C5
:10279000C27B41EA0241427A41EA0221027A41EADD
:1027A000420102781143054A0832116005E0002118
:1027B000024A121D1160121D1160704798ED00E071
:1027C00000BF00BF00BFBFF35F8F00BF00BF00BFEF
:1027D0000548006820F48030034908600020024961
:1027E000703108607047000024ED00E040F0010106
:1027F0000D4A11600C497039096841F480310A4A68
:10280000703A116000BF00BF00BFBFF34F8F00BF21
:1028100000BF00BF00BF00BF00BFBFF36F8F00BF8E
:1028200000BF00BF7047000094ED00E070472DE945
:10283000F05F80460D46164602F062FF07463946B5
:102840002A46334601F00700C0F1070ABAF1040F27
:1028500002D94FF0040A01E0C0F1070AD14600F1A5
:10286000040ABAF1070F02D24FF0000A01E0A0F10A
:10287000030AD4464FF0010A0AFA09FAAAF1010A3A
:102880000AEA020A0AFA0CFA4FF0010B0BFA0CFBE7
:10289000ABF1010B0BEA030B4AEA0B04214640465D
:1028A00002F036FFBDE8F09F00BF00F00702064BC4
:1028B00019684FF6FF031940044B0B4343EA02210A
:1028C000014B196000BF70470CED00E00000FA05F5
:1028D00070B5044615480068C0F3800048B9134835
:1028E000006800F00700A04201D0012070BD002068
:1028F000FCE70E48006820F0070020430B49086001
:10290000FFF7C2FE054607E0FFF7BEFE401BB0F52D
:102910007A7F01D90120E9E7044808380068C0F34C
:1029200040300028F0D00020E0E700000C480258BA
:102930002DE9F04104460025A846206800F000601B
:10294000B0F1006F30D1206E48B1B0F5801F0DD0CE
:10295000B0F5001F10D0B0F5401F15D113E0F748B7
:10296000006840F40030F54908600FE00221201DA6
:1029700002F07AF9054609E0022104F1240002F090
:1029800025FA054602E001E0012500BF00BF55B968
:10299000EA482430006820F44010216E0843E749DB
:1029A0002431086000E0A846208800F48070B0F56B
:1029B000807F2DD1606D05281AD2DFE800F0030A70
:1029C00010171800DD48006840F40030DB4908604B
:1029D00010E00021201D02F047F905460AE0002121
:1029E00004F1240002F0F2F9054603E002E001E000
:1029F000012500BF00BF55B9D0482430006820F041
:102A00000700616D0843CD492431086000E0A84605
:102A1000208800F48060B0F5806F3CD1D4F8A0002D
:102A2000B0F5C00F23D007DC68B1B0F5001F11D09E
:102A3000B0F5800F1ED113E0B0F5000F18D0B0F53F
:102A4000200F17D115E0BD48006840F40030BB49A5
:102A5000086011E00021201D02F006F905460BE098
:102A6000002104F1240002F0B1F9054604E003E07E
:102A700002E001E0012500BF00BF5DB9AF482C3086
:102A8000006820F46000D4F8A0100843AB492C3152
:102A9000086000E0A846208800F40060B0F5006FF0
:102AA0003CD1D4F8A400B0F1407F23D007DC68B15A
:102AB000B0F1807F11D0B0F1007F1ED113E0B0F1F2
:102AC000806F18D0B0F1A06F17D115E09B48006857
:102AD00040F400309949086011E00021201D02F007
:102AE000C3F805460BE0002104F1240002F06EF962
:102AF000054604E003E002E001E0012500BF00BF5D
:102B00005DB98E482C30006820F0E060D4F8A41045
:102B100008438A492C31086000E0A846206800F08C
:102B20000070B0F1007F27D1A06CA0B1102804D0B4
:102B3000202809D030280FD10CE08048006840F4EC
:102B400000307E49086009E00221201D02F08CF867
:102B5000054603E002E001E0012500BF00BF55B9D2
:102B600076482030006820F03000A16C084373499B
:102B70002031086000E0A846208800F48050B0F5BD
:102B8000805F36D1A06DB0F5005F19D004DC50B184
:102B9000B0F5805F1DD10DE0B0F5405F17D0B0F506
:102BA000804F16D114E06548006840F40030634956
:102BB000086010E00021201D02F056F805460AE0EA
:102BC000002104F1240002F001F9054603E002E0CF
:102BD00001E0012500BF00BF55B958482430006806
:102BE00020F4E040A16D084354492431086000E01E
:102BF000A846208800F40050B0F5005F34D1E06DA5
:102C0000B0F5403F1DD007DC68B1B0F5803F0BD078
:102C1000B0F5003F18D10DE0B0F5802F12D0B0F51F
:102C2000A02F11D10FE011E00121201D02F01CF8AE
:102C300005460BE0012104F1240002F0C7F8054627
:102C400004E003E002E001E0012500BF00BF55B948
:102C50003A482430006820F4E020E16D0843374909
:102C60002431086000E0A846208800F48040B0F5D8
:102C7000804F36D1D4F8A800B0F1405F1DD007DCFA
:102C800068B1B0F1805F0BD0B0F1005F18D10DE0FA
:102C9000B0F1804F12D0B0F1A04F11D10FE011E090
:102CA0000121201D01F0E0FF05460BE0012104F1A8
:102CB000240002F08BF8054604E003E002E001E0A6
:102CC000012500BF00BF5DB91C482C30006820F012
:102CD000E040D4F8A810084318492C31086000E0FF
:102CE000A846208800F40040B0F5004F29D1A06E1E
:102CF00098B1B0F1805F03D0B0F1005F0ED106E073
:102D00000E48006840F400300C49086008E00121DA
:102D1000201D01F0A9FF054602E001E0012500BFEA
:102D200000BF6DB905482430006820F04050A16E06
:102D3000084302492431086003E000002C44025893
:102D4000A846206800F08070B0F1807F27D1606CC9
:102D5000A0B1012804D0022809D003280FD10CE02B
:102D6000FE48006840F40030FC49086009E0022198
:102D7000201D01F079FF054603E002E001E0012596
:102D800000BF00BF55B9F5482030006820F00300AF
:102D9000616C0843F1492031086000E0A8462068D2
:102DA00000F48000B0F5800F7DD1ED48006840F45C
:102DB0008070EB490860FFF767FC064606E0FFF706
:102DC00063FC801B642801D9032505E0E448006802
:102DD00000F480700028F2D000BF85BBDF4844308B
:102DE000006800F44070B4F8AC1001F440718842FF
:102DF00013D0DA484430006820F44077D748443094
:102E0000006840F48030D5494431086008460068C5
:102E100020F48030086008460760D4F8AC00B0F5B4
:102E2000807F15D1FFF730FC064609E0FFF72CFC48
:102E3000801B41F28831884202D9032507E035E042
:102E4000C64844300068C0F340000028EED000BF00
:102E500055BB00BFB4F8AC0000F44070B0F5407F43
:102E60000ED1BE481C38006820F47C51BD4AD4F80D
:102E7000AC00104041EA1010B8491C39086007E066
:102E8000B6481C38006820F47C50B4491C390860EE
:102E9000B24844300068B4F8AC10C1F30B010843E9
:102EA000AE494431086002E0A84600E0A846207818
:102EB00000F0010068B3606F182819D005DC48B134
:102EC000082808D0102816D10BE0202811D0282877
:102ED00011D10FE011E00121201D01F0C5FE0546D2
:102EE0000BE0012104F1240001F070FF054604E02D
:102EF00003E002E001E0012500BF00BF55B997489B
:102F00002830006820F03800616F08439349283169
:102F1000086000E0A846207800F00200022828D1CE
:102F2000206F062815D2DFE800F003040A111213FF
:102F300011E00121201D01F097FE05460BE0012163
:102F400004F1240001F042FF054604E003E002E042
:102F500001E0012500BF00BF55B980482830006856
:102F600020F00700216F08437C492831086000E009
:102F7000A846207800F0040004282AD1D4F88C0058
:102F8000062815D2DFE800F003040A11121311E03D
:102F90000121201D01F068FE05460BE0012104F12E
:102FA000240001F013FF054604E003E002E001E025
:102FB000012500BF00BF5DB968482C30006820F0D3
:102FC0000700D4F88C10084364492C31086000E0F5
:102FD000A846207800F02000202836D1D4F88800B8
:102FE000B0F1405F1DD007DC68B1B0F1805F0BD05D
:102FF000B0F1005F18D10DE0B0F1804F12D0B0F108
:10300000A04F11D10FE011E00021201D01F02CFE96
:1030100005460BE0022104F1240001F0D7FE05462D
:1030200004E003E002E001E0012500BF00BF5DB95C
:103030004A482830006820F0E040D4F8881008435F
:1030400046492831086000E0A846207800F040009A
:10305000402836D1D4F89400B0F5406F1DD007DC7D
:1030600068B1B0F5806F0BD0B0F5006F18D10DE0EE
:10307000B0F5805F12D0B0F5A05F11D10FE011E084
:103080000021201D01F0F0FD05460BE0022104F1B6
:10309000240001F09BFE054604E003E002E001E0AD
:1030A000012500BF00BF5DB92C482C30006820F41A
:1030B000E050D4F89410084328492C31086000E00F
:1030C000A846207800F08000802836D1D4F89800F7
:1030D000B0F5C04F1DD007DC68B1B0F5005F0BD074
:1030E000B0F5804F18D10DE0B0F5004F12D0B0F51B
:1030F000204F11D10FE011E00021201D01F0B4FD9F
:1031000005460BE0022104F1240001F05FFE0546B4
:1031100004E003E002E001E0012500BF00BF5DB96B
:103120000E482C30006820F46040D4F89810084312
:103130000A492C31086000E0A846207800F0080019
:1031400008281BD1E06FB0F5805F0FD1022104F198
:10315000240001F03BFE48B106E000002C44025878
:1031600000480258FFFCFF0F4FF00108A448006818
:1031700020F44050E16F0843A1490860207800F036
:103180001000102817D1D4F89000B0F5807F07D137
:10319000022104F1240001F019FE08B14FF00108EA
:1031A0009748001D006820F44070D4F89010084340
:1031B0009349091D0860206800F40020B0F5002F35
:1031C00028D1D4F89C0030B1B0F5803F09D0B0F5DB
:1031D000003F0ED10CE00021201D01F045FD054609
:1031E00009E0022104F1240001F0F0FD054602E0AF
:1031F00001E0012500BF00BF5DB98148001D0068E6
:1032000020F44030D4F89C1008437D49091D086023
:1032100000E0A846206800F48020B0F5802F2BD174
:10322000D4F88000B0F5801F06D0B0F5001F0CD098
:10323000B0F5401F11D10FE071482838006840F404
:1032400000306F492839086009E0012104F12400A9
:1032500001F0BCFD054602E001E0012500BF00BF12
:103260004DB96748006820F44010D4F88010084336
:103270006349086000E0A846206800F48030B0F59B
:10328000803F24D1E06C18B1B0F5803F0FD108E049
:103290005B482838006840F40030594928390860F4
:1032A00007E00221201D01F0DFFC054601E00125B9
:1032B00000BF00BF55B952480838006820F480307C
:1032C000E16C08434E490839086000E0A8462068D0
:1032D00000F00050B0F1005F07D1022104F124009A
:1032E00001F074FD08B14FF00108206800F40030CF
:1032F000B0F5003F25D1A06FA0B1B0F5807F06D01A
:10330000B0F5007F0CD0B0F5407F0CD109E03C480F
:103310002838006840F4003039492839086004E052
:1033200003E002E001E0012500BF00BF45B93448D9
:10333000006820F44070A16F08433149086000E044
:10334000A846206800F48010B0F5801F09D12C48F1
:10335000001F006820F00040E16E08432849091F63
:103360000860206800F40010B0F5001F09D124485F
:10337000001F006820F08070616E08432049091F1B
:103380000860206800F08040B0F1804F11D100BF8C
:103390001B484438006820F400401949443908604B
:1033A00008460068D4F8B01008431549443908604D
:1033B00000BF206800F00040B0F1004F09D1104874
:1033C0000838006820F04050216D08430C49083946
:1033D0000860206800F40000B0F5000F08D108482C
:1033E000006820F44000D4F88410084304490860C1
:1033F000B8F1000F02D10020BDE8F0810120FBE709
:10340000544402582DE9F04104460D4614B90120F8
:10341000BDE8F081BD48006800F00F00A8420ED260
:10342000BA48006820F00F002843B84908600846F1
:10343000006800F00F00A84201D00120E8E72078E2
:1034400000F0040004280ED1B1492069096801F098
:103450007001884207D9AE48006820F070002169E9
:103460000843AB490860207800F00800082811D113
:10347000A749091D6069096801F07001884209D9EE
:10348000A348001D006820F0700061690843A0494E
:10349000091D0860207800F01000102811D19C4907
:1034A000091DA069096801F4E061884209D99848BA
:1034B000001D006820F4E060A16908439449091DDB
:1034C0000860207800F02000202811D190490831B0
:1034D000E069096801F07001884209D98C48083018
:1034E000006820F07000E1690843894908310860EC
:1034F000207800F0020002280ED18549E0680968B2
:1035000001F00F01884207D98148006820F00F00C0
:10351000E16808437E490860207800F00100002837
:1035200050D07B48006820F47060A1680843784957
:1035300008606068022807D1754818380068C0F331
:103540004040F8B9012063E76068032807D170485C
:1035500018380068C0F34060A0B9012058E76068DF
:10356000012807D16A4818380068C0F3002048B91C
:1035700001204DE7664818380068C0F3800008B99C
:10358000012045E762480838006820F007006168BC
:1035900008435F4908390860FFF776F8064608E0F7
:1035A000FFF772F8801B41F28831884201D903206D
:1035B0002EE757480838006800F038006168B0EB23
:1035C000C10FEDD1207800F0020002280ED1504941
:1035D000E068096801F00F01884207D24C48006892
:1035E00020F00F00E1680843494908604748006837
:1035F00000F00F00A8420ED94448006820F00F00E8
:103600002843424908600846006800F00F00A842BD
:1036100001D00120FCE6207800F0040004280ED13F
:103620003B492069096801F07001884207D2384897
:10363000006820F07000216908433549086020784F
:1036400000F00800082811D13149091D6069096896
:1036500001F07001884209D22D48001D006820F059
:103660007000616908432A49091D0860207800F04C
:103670001000102811D12649091DA069096801F41C
:10368000E061884209D22248001D006820F4E06011
:10369000A16908431E49091D0860207800F0200038
:1036A000202811D11A490831E069096801F0700138
:1036B000884209D216480830006820F07000E1699D
:1036C000084313490831086000F052F810490968AE
:1036D000C1F303210F4A515C01F01F0120FA01F7E9
:1036E0000B48006800F00F001146085C00F01F0056
:1036F00027FA00F008490860084807600848006891
:10370000FFF704F88046404682E6000000200052A1
:103710001844025894870008040000240000002484
:103720005C00002410B500F023F80D490968C1F3CE
:1037300003210C4A515C01F01F0120FA01F40848F2
:10374000006800F00F001146085C00F01F0024FA2A
:1037500000F005490860054804600846006810BD8F
:103760001844025894870008040000240000002434
:10377000F0B5824E366806F0380636B1082E15D000
:10378000102E15D0182E7DD114E07C4E103E3668D8
:10379000C6F3401646B1794E103E3668C6F3C107EF
:1037A000774E26FA07F000E07548E5E07548E3E05B
:1037B0007548E1E0714E1836366806F003046F4E26
:1037C00018363668C6F305116C4E1C36366806F09E
:1037D00001056A4E24363668C6F3CC0616FB05F69C
:1037E00001EE106AB8EE410A002971D024B1012C13
:1037F00050D0022C6DD16DE0604E103E3668C6F39D
:1038000040163EB35D4E103E3668C6F3C1075C4EAF
:1038100026FA07F301EE103AF8EE411A01EE101AFB
:10382000B8EE411A81EE812A9FED581AC0EE011AB6
:10383000524E20363668C6F3080601EE106AB8EE1E
:10384000411A31EE811AF7EE001A31EE211A62EEBA
:10385000010A1EE001EE101AB8EE411ADFED4C1A13
:1038600081EE812A9FED491AC0EE011A434E20369F
:103870003668C6F3080601EE106AB8EE411A31EE5A
:10388000811A00E076E0F7EE001A31EE211A62EEBE
:10389000010A5BE001EE101AB8EE411A9FED3D2AD5
:1038A000C2EE011A9FED391A80EE012A334E2036FE
:1038B0003668C6F3080601EE106AB8EE411A32EE19
:1038C000011AB7EE002A31EE021A61EE810A3DE0DC
:1038D0004EE01DE001EE101AB8EE411ADFED2E1A8F
:1038E00081EE812A9FED291AC0EE011A234E20365F
:1038F0003668C6F3080601EE106AB8EE411A31EEDA
:10390000811AF7EE001A31EE211A62EE010A1DE06B
:1039100001EE101AB8EE411A9FED1E2AC2EE011AEE
:103920009FED1A1A80EE012A144E20363668C6F32F
:10393000080601EE106AB8EE411A32EE011AB7EE2F
:10394000002A31EE021A61EE810A00BF00BF0B4E61
:1039500020363668C6F34626721C01EE102AB8EEF1
:10396000411AC0EE811ABCEEE11A11EE100A00E015
:10397000002001E0034800BF00BFF0BD1044025822
:103980000090D00300093D0000366E0100000046A3
:103990000024744C0024744A001BB74B2DE9F047F7
:1039A000044614B90120BDE8F087207800F001003A
:1039B000002870D0F948006800F03808F74818303F
:1039C000D0F80090B8F1100F06D0B8F1180F0FD151
:1039D00009F0030002280BD1F04810380068C0F34A
:1039E000404000286AD06068002867D10120DAE7EB
:1039F00000BF6068B0F5803F08D1E8481038006823
:103A000040F48030E549103908602EE0606868B9FC
:103A1000E2481038006820F48030E049103908602E
:103A20000846006820F4802008601EE06068B0F559
:103A3000A02F0DD1D9481038006840F48020D74914
:103A4000103908600846006840F4803008600CE0D7
:103A5000D2481038006820F48030D049103908600E
:103A60000846006820F48020086000BF606898B1B4
:103A7000FEF70AFE054606E0FEF706FE401B642838
:103A800001D903208FE7C54810380068C0F34040D3
:103A90000028F1D012E012E0FEF7F6FD054606E040
:103AA000FEF7F2FD401B642801D903207BE7BB48E9
:103AB00010380068C0F340400028F1D100BF2078E2
:103AC00000F00200022879D1B448006800F03808FC
:103AD000B2481830D0F80090B8F1000F05D0B8F116
:103AE000180F35D109F0030088BBAC4810380068C6
:103AF000C0F3800018B1E06808B9012053E7A74877
:103B00001038006820F01900E1680843A349103913
:103B10000860FEF7B9FD054606E0FEF7B5FD401B5F
:103B2000022801D903203EE79C4810380068C0F302
:103B300080000028F1D099480C38006820F0FE4041
:103B4000217C40EA016095490C39086045E0FFE7B7
:103B5000E06838B391481038006820F01900E16837
:103B600008438E4910390860FEF78EFD054606E0D1
:103B7000FEF78AFD401B022801D9032013E787487E
:103B800010380068C0F380000028F1D083480C385A
:103B9000006820F0FE40217C40EA01607F490C393A
:103BA00008601AE07D481038006820F001007B4969
:103BB00010390860FEF768FD054607E00EE0FEF7E5
:103BC00063FD401B022801D90320ECE6734810383E
:103BD0000068C0F380000028F1D100BF207800F019
:103BE000100010286FD16D48006800F038086B484D
:103BF0001830D0F80090B8F1080F06D0B8F1180FBF
:103C00001CD109F00300012818D16448103800685D
:103C1000C0F3002020B1E069802801D00120C2E675
:103C200000BF5E48001F006820F07C5094F8201010
:103C300040EA01605949091F086043E0E06938B370
:103C400056481038006840F0800054491039086028
:103C5000FEF71AFD054606E0FEF716FD401B02289A
:103C600001D903209FE64D4810380068C0F30020BA
:103C70000028F1D000BF4948001F006820F07C50A8
:103C800094F8201040EA01604449091F086019E0D7
:103C900042481038006820F0800040491039086020
:103CA000FEF7F2FC054606E0FEF7EEFC401B02289C
:103CB00001D9032077E6394810380068C0F30020A6
:103CC0000028F1D100BF207800F00800082836D184
:103CD0006069D0B131486430006840F001002F497C
:103CE00064310860FEF7D0FC054606E0FEF7CCFC28
:103CF000401B022801D9032055E62848643000689B
:103D0000C0F340000028F1D019E024486430006876
:103D100020F00100214964310860FEF7B5FC05463A
:103D200006E0FEF7B1FC401B022801D903203AE669
:103D30001A4864300068C0F340000028F1D12078B0
:103D400000F02000202838D1A069D0B113481038E5
:103D5000006840F48050114910390860FEF794FC67
:103D6000054606E0FEF790FC401B022801D903201F
:103D700019E60A4810380068C0F340300028F1D036
:103D80001BE006481038006820F4805003491039C1
:103D90000860FEF779FC054609E00000104402586F
:103DA000FEF772FC401B022801D90320FBE5BA484C
:103DB0000068C0F340300028F2D1207800F0040001
:103DC00004287DD1B548006840F48070B34908608C
:103DD000FEF75AFC054606E0FEF756FC401B642839
:103DE00001D90320DFE5AD48006800F480700028A9
:103DF000F2D000BFA068012808D1A7487030006841
:103E000040F00100A449703108602DE0A06868B955
:103E1000A1487030006820F001009F4970310860AF
:103E20000846006820F0040008601DE0A06805282E
:103E30000DD199487030006840F004009649703107
:103E400008600846006840F0010008600CE09248F5
:103E50007030006820F001008F497031086008461A
:103E6000006820F00400086000BFA068A0B1FEF761
:103E70000BFC054608E0FEF707FC401B41F28831C9
:103E8000884201D903208EE5834870300068C0F372
:103E900040000028EFD013E0FEF7F6FB054608E0EF
:103EA000FEF7F2FB401B41F28831884201D9032022
:103EB00079E5794870300068C0F340000028EFD100
:103EC000606A00287DD074481030006800F0380027
:103ED000182877D0606A022875D16F48006820F0F2
:103EE00080706D490860FEF7CFFB054606E0FEF7DF
:103EF000CBFB401B022801D9032054E5664800682B
:103F0000C0F340600028F2D100BFD4E90A1041EAB2
:103F1000001061492831096840F2F33291430843A7
:103F20005D4928310860208E401EC0F30800616B97
:103F3000491E4FF47E4202EA41210843218F491E67
:103F4000D20102EA014108433C21095D491E1202E7
:103F500002EA0161084350493031086000BF081F80
:103F6000006820F00100091F08604B4834300068E9
:103F70004FF6F8718843A16C40EAC10046493431DC
:103F8000086045482C30006820F00C00216C084384
:103F900041492C3108600846006820F00200616C3D
:103FA00008433D492C3108600846006840F48030E1
:103FB00008600846006840F4003008600846006861
:103FC00002E066E038E01FE040F480200860084628
:103FD000006840F0010008602F48006840F08070E1
:103FE0002D490860FEF750FB054606E0FEF74CFB46
:103FF000401B022801D90320D5E427480068C0F3FC
:1040000040600028F2D044E02348006820F080702F
:1040100021490860FEF738FB054606E0FEF734FB51
:10402000401B022801D90320BDE41B480068C0F3EF
:1040300040600028F2D12CE0174828300768164865
:1040400030300668606A012821D007F00301A06AB9
:1040500081421CD1C7F30511E06A884217D1C6F32B
:104060000801206B401E814211D1606B401EC6F3D7
:10407000462188420BD1A06B401EC6F30641884200
:1040800005D1E06B401EC6F30661884201D00120D5
:1040900089E4002087E400000044025800480258E8
:1040A00070B504460CB9012070BD606A00B900BF4C
:1040B0000021A1625749206888420CD056492068E7
:1040C000884208D055492068884204D0E0680F280B
:1040D00001D90120E8E7204601F041F805464D49A5
:1040E0002068884209D04C492068884205D04B4955
:1040F0002068884201D0082D0DD8464920688842A2
:1041000007D045492068884203D044492068884246
:1041100003D1102D01D90120C6E794F8810028B9F8
:10412000002084F88000204600F07AF8022084F80D
:1041300081002068006820F0010021680860206884
:10414000806800F4F816A069B0F1806F11D1606842
:10415000B0F5800F01D1A06B28B1606848B9A06BA1
:10416000B0F1805F05D12068006840F4805021687C
:104170000860A16AE06908433043E16B0843E168E5
:10418000084321688860616A606B0843A16B08433B
:10419000A16908432169084361690843216A08430A
:1041A00061680843E16C0843A1680843A16C0843B7
:1041B000A16D08432168C860606878B9206880688C
:1041C00020F4C05040F40060216888602068806856
:1041D00020F4C06040F48060216888602068006D31
:1041E00020F0010021680865606800F48000B0F5E7
:1041F000800F07D12068C06820F00040616D08433F
:104200002168C8600020C4F88400012084F881007F
:10421000002049E70030014000380040003C0040E9
:1042200010B5B4B004462A49206888424ED18014A3
:1042300002900020189002A8FEF77AFB00BF2548E4
:10424000006840F48040234908600846006800F494
:104250008040019000BF00BF00BF1E4808380068C2
:1042600040F002001B49083908600846006800F069
:104270000200019000BF00BF00BF0846006840F088
:10428000040008600846006800F00400019000BFC8
:1042900000BF06202F900220309000203190032094
:1042A0003290052033902FA90B48FEF7EFF84FF41A
:1042B00000502F9002203090002031900320329047
:1042C000052033902FA90548FEF7E0F834B010BD63
:1042D00000380040E8440258000802580004025820
:1042E0002DE9FF4F83B004468A461E46109D0020EC
:1042F000029000BF94F88000012803D1022007B08B
:10430000BDE8F08F012084F8800000BFFEF7BCF903
:1043100081463746B04694F881B060680190BBF1A1
:10432000010F11D00198B0F5800F04D1A06810B929
:10433000BBF1040F08D00220029000BF002084F8D7
:10434000800000BF0298DAE7BAF1000F02D00598AA
:1043500000B146B90120029000BF002084F880001F
:1043600000BF0298CBE794F88100042802D0052012
:1043700084F881000020C4F8840005986066A4F8E1
:104380006A60A4F86860C4F85CA0A4F86260A4F84D
:104390006060002020676067206840686FF30F004E
:1043A0003043216848602068006840F001002168BF
:1043B00008606068B0F5800F05D12068006840F49F
:1043C000007021680860E0680F284ED947E0206837
:1043D000406900F0020002280ED16FB1E06D006864
:1043E00021680862E06D001DE065B4F86200401EBF
:1043F000A4F86200B4F862702068406948F20801CD
:10440000084080B1B8F1000F0DD02068006B616EDC
:104410000860606E001D6066B4F86A00401EA4F873
:104420006A00B4F86A80FEF72FF9A0EB0900A842F1
:1044300001D3681C00B995B9204600F025FE00BFE5
:10444000002084F8800000BFD4F8840040F480701D
:10445000C4F88400012084F8810003204FE7002F76
:10446000B5D1B8F1000FB2D19FE0E06807284DD96F
:1044700046E02068406900F0020002280ED16FB1CA
:10448000E06D008821680884E06D801CE065B4F868
:104490006200401EA4F86200B4F8627020684069AF
:1044A00000F0010080B1B8F1000F0DD02068008E3F
:1044B000616E0880606E801C6066B4F86A00401E01
:1044C000A4F86A00B4F86A80FEF7DEF8A0EB0900F1
:1044D000A84201D3681C00B995B9204600F0D4FD6C
:1044E00000BF002084F8800000BFD4F8840040F4AE
:1044F0008070C4F88400012084F881000320FEE667
:10450000002FB6D1B8F1000FB3D14EE048E02068DB
:10451000406900F0020002280FD177B1E06D007809
:10452000216881F82000E06D401CE065B4F862006D
:10453000401EA4F86200B4F862702068406900F080
:10454000010088B1B8F1000F0ED0206890F830005B
:10455000616E0870606E401C6066B4F86A00401EB0
:10456000A4F86A00B4F86A80FEF78EF8A0EB0900A0
:10457000A84201D3681C00B995B9204600F084FD1B
:1045800000BF002084F8800000BFD4F8840040F40D
:104590008070C4F88400012084F881000320AEE616
:1045A000002FB4D1B8F1000FB1D14B460022082141
:1045B0002046009500F0E0FD28B1D4F8840040F0DA
:1045C0002000C4F88400204600F05EFD00BF0020FB
:1045D00084F8800000BF012084F88100D4F88400B2
:1045E00008B101208BE6029889E670B5044625469D
:1045F000681EB0F1807F01D301200FE0681E4FF0EC
:10460000E02148610F214FF0FF3001F081F80020D8
:104610004FF0E021886107200861002070BD7047DD
:1046200070B50446D4F88450D4F888602068806857
:1046300000F08000802823D1212D21D100BF00BFB0
:104640002168083151E8001F21F0800021680831FD
:1046500041E80002002AF3D100BFA06F68B1A06F4B
:10466000FCF75EFF48B1A06FFDF7C8F9202804D120
:104670001020C4F88C00032070BD204600F056FFC7
:104680002068806800F04000402823D1222E21D1EC
:1046900000BF00BF2168083151E8001F21F0400031
:1046A0002168083141E80002002AF3D100BFE06F21
:1046B00068B1E06FFCF734FF48B1E06FFDF79EF999
:1046C000202804D11020C4F88C000320D4E7204611
:1046D00000F0F6FE0020CFE77047000070B50446FA
:1046E0000D461646D4F8880020282CD105B10EB905
:1046F000012070BD00BF94F88000012801D1022084
:10470000F7E7012084F8800000BF0020E0660F4931
:104710002068884211D02068406800F4000060B131
:1047200000BF00BF216851E8001F41F0806022688F
:1047300042E800010029F5D100BF32462946204653
:1047400000F014FFD5E70220D3E70000000C00586A
:104750007047704700BFFEE71FB50446D4ED000A5E
:10476000B0EE600A9FED3A1ADFED3A0A3A4800F0DF
:10477000A1F83A4880ED000AD4ED010AB0EE600AD3
:104780009FED331ADFED330A3348243000F092F8FE
:10479000324880ED010AD4ED020AB0EE600A9FEDC6
:1047A0002C1ADFED2C0A2C48483000F083F82B48F7
:1047B00080ED020AD4ED030AB0EE600A9FED241AE0
:1047C000DFED240A24486C3000F074F8234880EDB3
:1047D000030AD4ED040AB0EE600A9FED1D1ADFED66
:1047E0001D0A1D48903000F065F81C4880ED040A51
:1047F000D4ED050AB0EE600A9FED151ADFED150A3B
:104800001548B43000F056F8144880ED050A94EDD0
:10481000060A80ED060A01461148FCF7C9F810485F
:1048200090ED060AB7EEC00A8DED020B90ED050A79
:10483000B7EEC00A8DED000B90ED041AB7EEC11A69
:10484000B0EE410B53EC102B06A000F035FF1FBD5E
:104850000AD7A33B00000000F4020024BC0200249D
:104860008802002425662C25662C25660A00000097
:1048700080ED000AC0ED010A80ED021ADFED0C1A8E
:10488000C0ED031ADFED0A1AC0ED041AF7EE001AA4
:10489000C0ED051ADFED061AC0ED061ADFED041AA9
:1048A000C0ED071AF7EE001AC0ED081A70470000B5
:1048B00000000000B0EE402B90ED030A90ED044A9A
:1048C00032EEC44A01EE040A80ED030A90ED060AB6
:1048D00090ED084A11EE040A90ED074A30EE440AC2
:1048E00090ED004A30EE044A90ED050A01EE040A0C
:1048F00080ED050A90ED060A90ED084A01EE440AA3
:1049000080ED060A90ED070A90ED084A01EE440A90
:1049100080ED070A90ED080A90ED014A04EE010AC5
:1049200080ED080A90ED050A90ED024A30EE040A87
:10493000B0EE403A90ED050A80EE034AF0EE440AEC
:1049400090ED070A80EE034AF0EE441A90ED030A58
:1049500032EE400AF0EE403A90ED030A00EEA30A70
:1049600080ED030A90ED040A01EEA30A80ED040A2B
:1049700090ED050A90ED054A00EEC40A80ED050AA7
:1049800090ED060A90ED064A00EEC40A80ED060A94
:1049900090ED070A90ED054A01EEC40A80ED070A82
:1049A00090ED080A90ED064A01EEC40A80ED080A6F
:1049B00090ED030A70471FB500200090019002900F
:1049C0000390FDF7FDFE01208DF8000000208DF81A
:1049D000010001901F208DF8080087208DF8090044
:1049E00000208DF80A008DF80B0001208DF80C00D6
:1049F0008DF80D0000208DF80E008DF80F00684630
:104A0000FDF7B0FE0420FDF7F1FE1FBD00BFFEE77D
:104A100080ED000AC0ED010A80ED021A704700BF68
:104A2000FEE770B52DED028B06460C461546D6ED19
:104A3000000A60EEA00A94ED001AD4ED001A41EECF
:104A4000210A95ED001AD5ED001A41EE210AB0EECB
:104A5000600A01F039F8B0EE408AB5EEC08AF1EE96
:104A600010FA11DD96ED000AC0EE080AC6ED000A44
:104A700094ED000AC0EE080AC4ED000A95ED000AA4
:104A8000C0EE080AC5ED000ABDEC028B70BD014600
:104A9000F0EE401A91ED054AB8EEC44A34EE614A90
:104AA000B0EE440A91ED004A24EE004AB0EE442AEA
:104AB00091ED044A00EE204A81ED044A91ED014A4D
:104AC000D1ED044A24EE244AF0EE442A91ED034A43
:104AD00030EE444AB0EE443A91ED024A24EE034AE5
:104AE000C4EE204AF0EE643A81ED030A32EE224A27
:104AF00034EE234AB0EE441A91ED064AB8EEC44AA9
:104B0000B4EEC14AF1EE10FA05D291ED064AB8EEC4
:104B1000C44AB0EE441A8869404204EE100AB8EE66
:104B2000C44AB4EEC14AF1EE10FA07DD886940428A
:104B300004EE100AB8EEC44AB0EE441ABDEEC14A03
:104B400014EE100A7047000070B52DED088B82B08E
:104B5000B0EE40AAF0EE609AB0EE418B04460D46EE
:104B6000164629EEA91A08EE081AF7EE001AB0EE5A
:104B7000002A42EE411AF0EE610A2AEE291A08EEE6
:104B8000281AF0EE001A21EE211AB0EE410A00F0C8
:104B90006FFEF0EE40BA9FED310A2BEE800ADFED9A
:104BA000300A80EE201A84ED001A2AEE080A08EE78
:104BB000E90AF0EE000A20EE200AB0EE409AB0EECC
:104BC000C90AF7EE000AB4EEE00AF1EE10FA0DDBC6
:104BD0009FED240A8DED010A19EE100A0246019993
:104BE00061F31E020192DDED01AA05E0B0EE490A73
:104BF00000F0A2FDF0EE40AA9FED180A2AEE800A0E
:104C0000DFED170A80EE201A85ED001A28EE081A4B
:104C100008EEA81AF7EE001AB0EE002A42EE411A8A
:104C2000F0EE610A2AEE281A09EE881AF0EE001A50
:104C300021EE211AB0EE410A00F01AFEB0EE40BAA1
:104C40009FED060A2BEE000ADFED050A80EE201A22
:104C500086ED001A02B0BDEC088B70BD0000344335
:104C6000DA0F4940DA0FC93F2DE9F04104460E46FC
:104C700000275548006800F00300032802D10120F6
:104C8000BDE8F08150482838006820F080604E4927
:104C900028390860FDF7F8FC054606E0FDF7F4FC4E
:104CA000401B022801D90320EAE74748283800685A
:104CB000C0F3C0600028F1D100BF4348006820F471
:104CC0007C30216840EA01303F490860A088401EDE
:104CD000C0F30800A168491E4FF47E4202EA412158
:104CE0000843A189491ED20102EA01410843217CFF
:104CF000491E120202EA016108433349103108607B
:104D000000BF3148001D006820F0C0006169084301
:104D10002D49091D08600846006820F02000A1699F
:104D200008432949091D08600846006820F0100062
:104D300008602548143000684FF6F8718843E1692F
:104D400040EAC1002049143108601F48001D006876
:104D500040F010001C49091D08602EB90846006883
:104D600040F40020086012E0012E08D11648001D12
:104D7000006840F480101449091D086007E01248DB
:104D8000001D006840F400100F49091D08600E481E
:104D90002838006840F080600B4928390860FDF72A
:104DA00073FC054606E0FDF76FFC401B022801D9A5
:104DB000032065E7044828380068C0F3C060002875
:104DC000F1D038465CE70000284402582DE9F04154
:104DD00004460E4600275548006800F003000328EB
:104DE00002D10120BDE8F08150482838006820F049
:104DF00080504E4928390860FDF746FC054606E01C
:104E0000FDF742FC401B022801D90320EAE747488E
:104E100028380068C0F340700028F1D100BF434833
:104E2000006820F07C70218840EA01503F4908600A
:104E3000A088401EC0F30800A168491E4FF47E42BE
:104E400002EA41210843A189491ED20102EA014137
:104E50000843217C491E120202EA016108433349DA
:104E60001831086000BF3148001D006820F4406020
:104E7000616908432D49091D08600846006820F44F
:104E80000070A16908432949091D086008460068A7
:104E900020F48070086025481C3000684FF6F871D7
:104EA0008843E16940EAC10020491C3108601F487D
:104EB000001D006840F480701C49091D08602EB96F
:104EC0000846006840F48000086012E0012E08D116
:104ED0001648001D006840F400001449091D0860D0
:104EE00007E01248001D006840F080700F49091D5E
:104EF00008600E482838006840F080500B49283977
:104F00000860FDF7C1FB054606E0FDF7BDFB401B51
:104F1000022801D9032065E7044828380068C0F357
:104F200040700028F1D038465CE700002844025861
:104F30000FB58178C27841EA0221C1F30A01ADF8C8
:104F400000100179427941EA0221C1F30A01ADF86A
:104F500002108179C27941EA0221C1F30A01ADF858
:104F60000410017A427A41EA0221C1F30A01ADF844
:104F70000610817AC27A41EA0221C1F30A01ADF832
:104F80000810817BC27B41EA0221C1F30A01ADF81E
:104F90000C10017C427C41EA0221C1F30A01ADF808
:104FA0000E10BDF8021000EE101AB8EE401B9FED77
:104FB0001C2BB0EE080B12EE010BB7EEC00B1A491A
:104FC00081ED000ABDF8061000EE101AB8EE401B85
:104FD0009FED132BB0EE080B12EE010BB7EEC00BDA
:104FE000114981ED010ABDF8001000EE101AB8EE6B
:104FF000401B9FED0B2BB0EE080B12EE010BB7EE32
:10500000C00B094981ED020ABDF80810064A9181DA
:10501000BDF80E10D181BDF80C1011820FBD00003B
:10502000FCA9F1D24D62603F5802002410B514482B
:10503000144908604FF480004860002111488160E5
:105040000721C1604FF00071016149104161890180
:10505000C161002101624FF08061816109014163FA
:10506000002181634162C1638162C1620164416464
:105070008164C164016541658165FFF711F810BD68
:1050800000380040D001002402685169026892692A
:1050900042F0080203689A610268926942F01002C5
:1050A00003689A610268126822F0010203681A60BC
:1050B0000268126940F26F339A4303681A6102680A
:1050C000926822F4404203689A6090F88120042A92
:1050D0000ED001F020025AB1D0F8842042F08002B4
:1050E000C0F884200268926942F0200203689A6145
:1050F00090F88120032A0ED001F040025AB1D0F876
:10510000842042F00402C0F884200268926942F0D0
:10511000400203689A6101F400725AB1D0F8842009
:1051200042F00102C0F884200268926942F40072E1
:1051300003689A6101F480725AB1D0F8842042F079
:105140000802C0F884200268926942F48072036801
:105150009A610022A0F86220A0F86A20704710B57A
:1051600001460124C86B04EB5013C868421CD01DD3
:10517000C20802FB03F010BD2DE9F04106460C46C3
:1051800017469846069D0BE0FDF77EFAA0EB080057
:10519000A84201D3681C00B915B90320BDE8F0810D
:1051A000306840692040A04201D1012000E0002089
:1051B000B842E9D00020F1E710B5FDF76BFA02F034
:1051C0007FFF012801D002F05FFD10BD00B59DB04A
:1051D0004C210AA8FBF742F9202102A8FBF73EF96F
:1051E0000220FDF775FB00BF0020019020480068F9
:1051F00020F440401E4908600846006800F4404022
:10520000019000BF00BF00BF1948006800F40050C3
:10521000B0F5005FF8D102200A9001200D904020E7
:105220000E90022013900021149104211591322137
:10523000169104211791189119911A9100211B912F
:105240001C910AA8FEF7AAFB1B20029003200390E2
:105250000020049005904020079000010890402015
:1052600006900990042102A8FEF7CCF81DB000BDFD
:10527000184802582F48006840F470002D49086013
:105280002D48006800F00F00072806D22A48006861
:1052900020F00F00C01D284908602848006840F031
:1052A0000100264908600020244910310860234885
:1052B000006823490840214908601F48006800F041
:1052C0000F00072806D91C48006820F00F00C01DF9
:1052D000194908600020194918310860091D086043
:1052E000091D086017481549283108601648091D2E
:1052F00008601648091D08600020091D0860134851
:10530000091D08600020091D08601048091D08607B
:105310000020091D08600948006820F48020074922
:105320000860002005496031086043F2D200084956
:105330000860704788ED00E00020005200440258E9
:105340007FEDF6EA000202020000FF018002010187
:105350000040005201490968086470478401002434
:1053600010B50948D0ED080AB0EE600ADFED070A73
:105370000748FFF78CFB04B2002C00DA0024A0B22F
:10538000FFF7E8FF10BD0000880200240AD7A33B06
:10539000D80200242DE9F0410546AC6BD4F88460B6
:1053A000D4F888702068806800F08000802807D1D9
:1053B000212E05D10020A4F85600204600F0B6F8B2
:1053C0002068806800F04000402807D1222F05D1D6
:1053D0000020A4F85E00204600F072F8D4F88C009B
:1053E00040F01000C4F88C002046FFF775F9BDE8C6
:1053F000F08170B50546AC6BE869B0F5807F40D0B0
:105400000020A4F85E0000BF00BF216851E8001F23
:1054100021F48070226842E800010029F5D100BF24
:1054200000BF00BF2168083151E8001F21F00100D2
:105430002168083141E80002002AF3D100BF00BF13
:1054400000BF2168083151E8001F21F040002168A9
:10545000083141E80002002AF3D100BF2020C4F83F
:105460008800E06E01280CD100BF00BF216851E820
:10547000001F21F01000226842E800010029F5D148
:1054800000BFE06E012805D1B4F85C102046FFF79C
:10549000C6F802E02046FFF75BF970BD70B505461F
:1054A000AC6BE06E012806D1B4F85C0041082046E0
:1054B000FFF7B5F802E02046FFF74BF970BD00009A
:1054C00000BF00BF026852E8002F22F49071036809
:1054D00043E80012002AF5D100BF00BF00BF0268F8
:1054E000083252E8002F104B02EA0301026808322A
:1054F00042E80013002BF2D100BFC16E01290CD18C
:1055000000BF00BF026852E8002F22F010010368BC
:1055100043E80012002AF5D100BF2021C0F888100E
:105520000021C16601677047FEFFFFEF00BF00BFAB
:10553000026852E8002F22F0C001036843E800121D
:10554000002AF5D100BF00BF00BF0268083252E850
:10555000002F22F400010268083242E80013002BF9
:10556000F3D100BF2021C0F88410704770B5044605
:105570000E46154644F8586FA5800020606322202F
:105580002063606A583C08B32A48E16FC8632A4820
:10559000E16F08642948E16FC8640020E16F086585
:1055A000236803F124012B46A26DE06FFCF72AFA71
:1055B00060B11020C4F88C0000BF002084F8800087
:1055C00000BF2020C4F88800012070BD00BF00206B
:1055D00084F8800000BF206960B100BF00BF21686F
:1055E00051E8001F41F48070226842E80001002960
:1055F000F5D100BF00BF00BF2168083151E8001F8E
:1056000041F001002168083141E80002002AF3D18D
:1056100000BF00BF00BF2168083151E8001F41F002
:1056200040002168083141E80002002AF3D100BFA0
:105630000020CAE7F35300089D5400089553000862
:1056400010B517480068C069C0F3001038B31020C7
:105650001349096808621248FEF7E2FF1148006822
:105660001149884206D111480E4908600E48104978
:10567000086005E00C480B4908600C480C490860BC
:105680000B480068FFF754FC802109480068FAF7CE
:10569000E5FE8022034801680148FFF71FF810BDAE
:1056A000CC0300244C000024D4040024540500241E
:1056B0005000002400BFFEE70FB4054B10B503A94E
:1056C000044A029800F00CFB10BC5DF814FB0000CB
:1056D0002D660008540000244100080218BF042071
:1056E0000A0E18BF40F001004FF07F4232EA01017C
:1056F00008BF40F00200012808BF052070470000E5
:1057000002480068C0F30220704700000CED00E082
:1057100010B5002804DB0A07130E054A135406E0EF
:105720000A07140E034A00F00F031B1FD45410BDC8
:1057300000E400E018ED00E010B54FF00E402DED54
:10574000028BB0EE408A18EE104A00EB4400B0F134
:10575000506F4AD84FF0FC40B0EB440F22D2B0EE6D
:10576000C80ADFED360A30EEC00ADFED350A60EE1A
:10577000208A18EE900A01F0C3FE01EE100A14F020
:10578000004F1DBFDFED2F0A9FED2F0AB1EE411A2A
:10579000DFED2E0A08BF9FED2E0ADFED2E1A21EE57
:1057A000218A05E0DFED2C0A68EE088AB0EE600A77
:1057B0009FED2A1ADFED2A1A30EE080A48EE811A08
:1057C0009FED281A08EEA11ADFED271A48EE811A7C
:1057D0009FED261A08EEA11A68EE281ABDEC028B7E
:1057E00001EE810A30EE200A10BD4FF0E440B0EB2C
:1057F000440F0CD918EE100AFFF76EFF042808BFFB
:1058000000F08EF9B0EE480ABDEC028B10BD4FF0EF
:105810007F40B0EB440F07D2B0EE480ABDEC028BDC
:10582000BDE8104000F06DB9012000F091F9BDEC29
:10583000028BBDE8104000F06BB900000000803F13
:105840000000003F0000C9BF22AAFDB90000C93F07
:1058500022AAFD39000000C00000000024FE1C3D0B
:10586000C78AD83C1E67383D1B93993DAFAA2A3E94
:1058700010EE100A10B510EE901A4FF0684202EBCD
:1058800040032DED028BB3F1654F3CBF02EB4102AB
:10589000B2F1654F7CD200BFC0F3C753C1F3C7520A
:1058A0009A1A1B2A09DD10F0004F14BF9FED6E0AF3
:1058B0009FED6E0ABDEC028B10BD12F11A0F1BDAC0
:1058C00011F0004F09D010F0004F0CBF9FED680A97
:1058D0009FED680ABDEC028B10BD80EE208A18EEA9
:1058E000100AFFF7F9FE042808BF00F019F9B0EE1E
:1058F000480ABDEC028B10BD4200B2EB410F37D914
:1059000010F0004F19BFDFED5C1A9FED5C1ADFED60
:105910005C1A9FED5C1AB0EE602A0A46F1EE400A6E
:1059200080F00041B0EE420A10460A1A5200B2F16D
:10593000807F34D2484010F0004FDFED532A9FEDB6
:10594000533A1DBF9FED522A71EEE21A31EE431A0F
:105950009FED502A04BF71EEA21A31EE031AF0EE49
:10596000402A42EE602A40EE020A82EEA02A18E0A7
:1059700011F0004F04BF9FED481AF0EE411AD4D049
:1059800010F0004F1CBFDFED451A9FED451A00E0F7
:1059900026E004BFDFED431A9FED431AC5E780EE12
:1059A000202A22EE020ADFED410ADFED412ABDEC9A
:1059B000028B40EE202ADFED3F0A40EE220ADFEDA7
:1059C0003E2A40EE202ADFED3D0A40EE220A22EE7A
:1059D000000A00EE201A31EE020A30EE210A10BD54
:1059E0004FF07F42B2EB400F28BFB2EB410F05D220
:1059F000BDEC028BBDE8104000F086B840EA010320
:105A00005B0008BF41F0FF410BD0B2EB400F08BF75
:105A1000B2EB410F08D120F0804000EE100A21F0D7
:105A2000804100EE901A37E7B2EB400F12BF5FEAF9
:105A3000410240F0FF4001F000413FF42DAF4A0029
:105A400092EA40033FF528AF002AACBF9FED1C1A35
:105A50009FED1C1A20EE010A60EE810A10EE100A7A
:105A600010EE901A18E70000DB0FC9BFDB0FC93F2B
:105A7000DB0F4940DB0F49C00000C9BF22AAFDB9B6
:105A80000000C93F22AAFD390060ED3EC30ACE37AF
:105A9000000000BF0000003F00000000000049C0FF
:105AA00022AA7DBA0000494022AA7D3A2DAD65BDEB
:105AB0008FB8D53D0FB511BE61C84C3EA8AAAABE8D
:105AC0000000804F0000802F10B52DED028BB1EE4D
:105AD000C08A18EE100A20F00040C0F1FF40C00F4D
